{
  "contractName": "Pool",
  "abi": [
    {
      "anonymous": false,
      "inputs": [
        {
          "indexed": true,
          "internalType": "address",
          "name": "user",
          "type": "address"
        },
        {
          "indexed": false,
          "internalType": "uint256",
          "name": "volume",
          "type": "uint256"
        },
        {
          "indexed": false,
          "internalType": "uint256",
          "name": "total",
          "type": "uint256"
        }
      ],
      "name": "Claimed",
      "type": "event"
    },
    {
      "anonymous": false,
      "inputs": [
        {
          "indexed": true,
          "internalType": "address",
          "name": "user",
          "type": "address"
        },
        {
          "indexed": false,
          "internalType": "uint256",
          "name": "amount",
          "type": "uint256"
        },
        {
          "indexed": false,
          "internalType": "uint256",
          "name": "volume",
          "type": "uint256"
        },
        {
          "indexed": false,
          "internalType": "uint256",
          "name": "total",
          "type": "uint256"
        }
      ],
      "name": "Contributed",
      "type": "event"
    },
    {
      "anonymous": false,
      "inputs": [
        {
          "indexed": false,
          "internalType": "uint256",
          "name": "liquidity",
          "type": "uint256"
        },
        {
          "indexed": false,
          "internalType": "uint256",
          "name": "finishAt",
          "type": "uint256"
        }
      ],
      "name": "Finalized",
      "type": "event"
    },
    {
      "anonymous": false,
      "inputs": [
        {
          "indexed": true,
          "internalType": "address",
          "name": "previousOwner",
          "type": "address"
        },
        {
          "indexed": true,
          "internalType": "address",
          "name": "newOwner",
          "type": "address"
        }
      ],
      "name": "OwnershipTransferred",
      "type": "event"
    },
    {
      "anonymous": false,
      "inputs": [
        {
          "indexed": true,
          "internalType": "address",
          "name": "user",
          "type": "address"
        },
        {
          "indexed": false,
          "internalType": "uint256",
          "name": "amount",
          "type": "uint256"
        }
      ],
      "name": "WithdrawnContribution",
      "type": "event"
    },
    {
      "inputs": [
        {
          "internalType": "address",
          "name": "",
          "type": "address"
        }
      ],
      "name": "claimedOf",
      "outputs": [
        {
          "internalType": "uint256",
          "name": "",
          "type": "uint256"
        }
      ],
      "stateMutability": "view",
      "type": "function"
    },
    {
      "inputs": [],
      "name": "completedKyc",
      "outputs": [
        {
          "internalType": "bool",
          "name": "",
          "type": "bool"
        }
      ],
      "stateMutability": "view",
      "type": "function"
    },
    {
      "inputs": [
        {
          "internalType": "address",
          "name": "",
          "type": "address"
        }
      ],
      "name": "contributionOf",
      "outputs": [
        {
          "internalType": "uint256",
          "name": "",
          "type": "uint256"
        }
      ],
      "stateMutability": "view",
      "type": "function"
    },
    {
      "inputs": [],
      "name": "endTime",
      "outputs": [
        {
          "internalType": "uint256",
          "name": "",
          "type": "uint256"
        }
      ],
      "stateMutability": "view",
      "type": "function"
    },
    {
      "inputs": [],
      "name": "factory",
      "outputs": [
        {
          "internalType": "address",
          "name": "",
          "type": "address"
        }
      ],
      "stateMutability": "view",
      "type": "function"
    },
    {
      "inputs": [],
      "name": "governance",
      "outputs": [
        {
          "internalType": "address",
          "name": "",
          "type": "address"
        }
      ],
      "stateMutability": "view",
      "type": "function"
    },
    {
      "inputs": [],
      "name": "hardCap",
      "outputs": [
        {
          "internalType": "uint256",
          "name": "",
          "type": "uint256"
        }
      ],
      "stateMutability": "view",
      "type": "function"
    },
    {
      "inputs": [],
      "name": "liquidityListingRate",
      "outputs": [
        {
          "internalType": "uint256",
          "name": "",
          "type": "uint256"
        }
      ],
      "stateMutability": "view",
      "type": "function"
    },
    {
      "inputs": [],
      "name": "liquidityLockDays",
      "outputs": [
        {
          "internalType": "uint256",
          "name": "",
          "type": "uint256"
        }
      ],
      "stateMutability": "view",
      "type": "function"
    },
    {
      "inputs": [],
      "name": "liquidityPercent",
      "outputs": [
        {
          "internalType": "uint256",
          "name": "",
          "type": "uint256"
        }
      ],
      "stateMutability": "view",
      "type": "function"
    },
    {
      "inputs": [],
      "name": "liquidityUnlockTime",
      "outputs": [
        {
          "internalType": "uint256",
          "name": "",
          "type": "uint256"
        }
      ],
      "stateMutability": "view",
      "type": "function"
    },
    {
      "inputs": [],
      "name": "maxContribution",
      "outputs": [
        {
          "internalType": "uint256",
          "name": "",
          "type": "uint256"
        }
      ],
      "stateMutability": "view",
      "type": "function"
    },
    {
      "inputs": [],
      "name": "minContribution",
      "outputs": [
        {
          "internalType": "uint256",
          "name": "",
          "type": "uint256"
        }
      ],
      "stateMutability": "view",
      "type": "function"
    },
    {
      "inputs": [],
      "name": "owner",
      "outputs": [
        {
          "internalType": "address",
          "name": "",
          "type": "address"
        }
      ],
      "stateMutability": "view",
      "type": "function"
    },
    {
      "inputs": [],
      "name": "poolDetails",
      "outputs": [
        {
          "internalType": "string",
          "name": "",
          "type": "string"
        }
      ],
      "stateMutability": "view",
      "type": "function"
    },
    {
      "inputs": [],
      "name": "poolState",
      "outputs": [
        {
          "internalType": "enum Pool.PoolState",
          "name": "",
          "type": "uint8"
        }
      ],
      "stateMutability": "view",
      "type": "function"
    },
    {
      "inputs": [
        {
          "internalType": "address",
          "name": "",
          "type": "address"
        }
      ],
      "name": "purchasedOf",
      "outputs": [
        {
          "internalType": "uint256",
          "name": "",
          "type": "uint256"
        }
      ],
      "stateMutability": "view",
      "type": "function"
    },
    {
      "inputs": [],
      "name": "rate",
      "outputs": [
        {
          "internalType": "uint256",
          "name": "",
          "type": "uint256"
        }
      ],
      "stateMutability": "view",
      "type": "function"
    },
    {
      "inputs": [],
      "name": "refundType",
      "outputs": [
        {
          "internalType": "uint256",
          "name": "",
          "type": "uint256"
        }
      ],
      "stateMutability": "view",
      "type": "function"
    },
    {
      "inputs": [
        {
          "internalType": "address",
          "name": "",
          "type": "address"
        }
      ],
      "name": "refundedOf",
      "outputs": [
        {
          "internalType": "uint256",
          "name": "",
          "type": "uint256"
        }
      ],
      "stateMutability": "view",
      "type": "function"
    },
    {
      "inputs": [],
      "name": "renounceOwnership",
      "outputs": [],
      "stateMutability": "nonpayable",
      "type": "function"
    },
    {
      "inputs": [],
      "name": "router",
      "outputs": [
        {
          "internalType": "address",
          "name": "",
          "type": "address"
        }
      ],
      "stateMutability": "view",
      "type": "function"
    },
    {
      "inputs": [],
      "name": "softCap",
      "outputs": [
        {
          "internalType": "uint256",
          "name": "",
          "type": "uint256"
        }
      ],
      "stateMutability": "view",
      "type": "function"
    },
    {
      "inputs": [],
      "name": "startTime",
      "outputs": [
        {
          "internalType": "uint256",
          "name": "",
          "type": "uint256"
        }
      ],
      "stateMutability": "view",
      "type": "function"
    },
    {
      "inputs": [],
      "name": "token",
      "outputs": [
        {
          "internalType": "address",
          "name": "",
          "type": "address"
        }
      ],
      "stateMutability": "view",
      "type": "function"
    },
    {
      "inputs": [],
      "name": "totalClaimed",
      "outputs": [
        {
          "internalType": "uint256",
          "name": "",
          "type": "uint256"
        }
      ],
      "stateMutability": "view",
      "type": "function"
    },
    {
      "inputs": [],
      "name": "totalRaised",
      "outputs": [
        {
          "internalType": "uint256",
          "name": "",
          "type": "uint256"
        }
      ],
      "stateMutability": "view",
      "type": "function"
    },
    {
      "inputs": [],
      "name": "totalRefunded",
      "outputs": [
        {
          "internalType": "uint256",
          "name": "",
          "type": "uint256"
        }
      ],
      "stateMutability": "view",
      "type": "function"
    },
    {
      "inputs": [],
      "name": "totalVolumePurchased",
      "outputs": [
        {
          "internalType": "uint256",
          "name": "",
          "type": "uint256"
        }
      ],
      "stateMutability": "view",
      "type": "function"
    },
    {
      "inputs": [
        {
          "internalType": "address",
          "name": "newOwner",
          "type": "address"
        }
      ],
      "name": "transferOwnership",
      "outputs": [],
      "stateMutability": "nonpayable",
      "type": "function"
    },
    {
      "stateMutability": "payable",
      "type": "receive"
    },
    {
      "inputs": [
        {
          "internalType": "address[4]",
          "name": "_addrs",
          "type": "address[4]"
        },
        {
          "internalType": "uint256[2]",
          "name": "_rateSettings",
          "type": "uint256[2]"
        },
        {
          "internalType": "uint256[2]",
          "name": "_contributionSettings",
          "type": "uint256[2]"
        },
        {
          "internalType": "uint256[2]",
          "name": "_capSettings",
          "type": "uint256[2]"
        },
        {
          "internalType": "uint256[3]",
          "name": "_timeSettings",
          "type": "uint256[3]"
        },
        {
          "internalType": "uint256[2]",
          "name": "_feeSettings",
          "type": "uint256[2]"
        },
        {
          "internalType": "uint256",
          "name": "_liquidityPercent",
          "type": "uint256"
        },
        {
          "internalType": "uint256",
          "name": "_refundType",
          "type": "uint256"
        },
        {
          "internalType": "string",
          "name": "_poolDetails",
          "type": "string"
        }
      ],
      "name": "initialize",
      "outputs": [],
      "stateMutability": "nonpayable",
      "type": "function"
    },
    {
      "inputs": [],
      "name": "contribute",
      "outputs": [],
      "stateMutability": "payable",
      "type": "function"
    },
    {
      "inputs": [],
      "name": "claim",
      "outputs": [],
      "stateMutability": "nonpayable",
      "type": "function"
    },
    {
      "inputs": [],
      "name": "withdrawContribution",
      "outputs": [],
      "stateMutability": "nonpayable",
      "type": "function"
    },
    {
      "inputs": [],
      "name": "finalize",
      "outputs": [],
      "stateMutability": "nonpayable",
      "type": "function"
    },
    {
      "inputs": [],
      "name": "cancel",
      "outputs": [],
      "stateMutability": "nonpayable",
      "type": "function"
    },
    {
      "inputs": [],
      "name": "withdrawLeftovers",
      "outputs": [],
      "stateMutability": "nonpayable",
      "type": "function"
    },
    {
      "inputs": [],
      "name": "withdrawLiquidity",
      "outputs": [],
      "stateMutability": "nonpayable",
      "type": "function"
    },
    {
      "inputs": [
        {
          "internalType": "address payable",
          "name": "to_",
          "type": "address"
        },
        {
          "internalType": "uint256",
          "name": "amount_",
          "type": "uint256"
        }
      ],
      "name": "emergencyWithdraw",
      "outputs": [],
      "stateMutability": "nonpayable",
      "type": "function"
    },
    {
      "inputs": [
        {
          "internalType": "address",
          "name": "token_",
          "type": "address"
        },
        {
          "internalType": "address",
          "name": "to_",
          "type": "address"
        },
        {
          "internalType": "uint256",
          "name": "amount_",
          "type": "uint256"
        }
      ],
      "name": "emergencyWithdraw",
      "outputs": [],
      "stateMutability": "nonpayable",
      "type": "function"
    },
    {
      "inputs": [
        {
          "internalType": "string",
          "name": "details_",
          "type": "string"
        }
      ],
      "name": "updatePoolDetails",
      "outputs": [],
      "stateMutability": "nonpayable",
      "type": "function"
    },
    {
      "inputs": [
        {
          "internalType": "bool",
          "name": "completed_",
          "type": "bool"
        }
      ],
      "name": "updateCompletedKyc",
      "outputs": [],
      "stateMutability": "nonpayable",
      "type": "function"
    },
    {
      "inputs": [
        {
          "internalType": "address",
          "name": "governance_",
          "type": "address"
        }
      ],
      "name": "setGovernance",
      "outputs": [],
      "stateMutability": "nonpayable",
      "type": "function"
    },
    {
      "inputs": [
        {
          "internalType": "address",
          "name": "user_",
          "type": "address"
        }
      ],
      "name": "getContributionAmount",
      "outputs": [
        {
          "internalType": "uint256",
          "name": "",
          "type": "uint256"
        },
        {
          "internalType": "uint256",
          "name": "",
          "type": "uint256"
        }
      ],
      "stateMutability": "view",
      "type": "function"
    },
    {
      "inputs": [],
      "name": "liquidityBalance",
      "outputs": [
        {
          "internalType": "uint256",
          "name": "",
          "type": "uint256"
        }
      ],
      "stateMutability": "view",
      "type": "function"
    },
    {
      "inputs": [],
      "name": "remainingContribution",
      "outputs": [
        {
          "internalType": "uint256",
          "name": "",
          "type": "uint256"
        }
      ],
      "stateMutability": "view",
      "type": "function"
    },
    {
      "inputs": [
        {
          "internalType": "uint256",
          "name": "amountInWei",
          "type": "uint256"
        }
      ],
      "name": "convert",
      "outputs": [
        {
          "internalType": "uint256",
          "name": "",
          "type": "uint256"
        }
      ],
      "stateMutability": "view",
      "type": "function"
    }
  ],
  "bytecode": "0x608060405234801561001057600080fd5b50613960806100206000396000f3fe60806040526004361061021c5760003560e01c806305ad8083146102365780630d616d20146102625780631c6faa73146102775780632249742a1461029e5780632a30ab1d146102d15780632c4e722e146103825780633197cbb61461039757806332c1f245146103ac57806332c764b9146103f85780634bb278f31461040d5780634e71d92d146104225780635aa6e675146104375780635c6cd36e14610468578063641ad8a91461047d578063715018a6146104b357806378e97925146104c85780637c8f3f9e146104dd5780637ea382c1146104f25780638020c5b0146105075780638d3d6576146105915780638da5cb5b146105a6578063906a26e0146105bb57806395ccea67146105d05780639f37c5e814610609578063a3908e1b1461063c578063a724bd3014610666578063aaffadf31461067b578063ab033ea914610690578063b0683755146106c3578063baa3f7ee146106d8578063c3926a291461070b578063c45a015514610720578063c5c4744c14610735578063cbdbc1a71461074a578063ce0328221461075f578063d084b4ff14610774578063d54ad2a11461079d578063d7805ece146107b2578063d7bb99ba146107e5578063d9082962146107ed578063de7872cf14610802578063e63ea408146109c3578063ea8a1af014610a06578063f2fde38b14610a1b578063f887ea4014610a4e578063fb86a40414610a63578063fc0c546a14610a7857610231565b3661023157341561022f5761022f610a8d565b005b600080fd5b34801561024257600080fd5b5061022f6004803603602081101561025957600080fd5b50351515610e86565b34801561026e57600080fd5b5061022f610eea565b34801561028357600080fd5b5061028c61112c565b60408051918252519081900360200190f35b3480156102aa57600080fd5b5061028c600480360360208110156102c157600080fd5b50356001600160a01b0316611132565b3480156102dd57600080fd5b5061022f600480360360208110156102f457600080fd5b810190602081018135600160201b81111561030e57600080fd5b82018360208201111561032057600080fd5b803590602001918460018302840111600160201b8311171561034157600080fd5b91908080601f016020809104026020016040519081016040528093929190818152602001838380828437600092019190915250929550611144945050505050565b34801561038e57600080fd5b5061028c6111cd565b3480156103a357600080fd5b5061028c6111d3565b3480156103b857600080fd5b506103df600480360360208110156103cf57600080fd5b50356001600160a01b03166111d9565b6040805192835260208301919091528051918290030190f35b34801561040457600080fd5b5061022f61129b565b34801561041957600080fd5b5061022f611427565b34801561042e57600080fd5b5061022f611978565b34801561044357600080fd5b5061044c611aa2565b604080516001600160a01b039092168252519081900360200190f35b34801561047457600080fd5b5061028c611ab1565b34801561048957600080fd5b50610492611ab7565b604051808260028111156104a257fe5b815260200191505060405180910390f35b3480156104bf57600080fd5b5061022f611ac0565b3480156104d457600080fd5b5061028c611b5a565b3480156104e957600080fd5b5061028c611b60565b3480156104fe57600080fd5b5061022f611b66565b34801561051357600080fd5b5061051c611eea565b6040805160208082528351818301528351919283929083019185019080838360005b8381101561055657818101518382015260200161053e565b50505050905090810190601f1680156105835780820380516001836020036101000a031916815260200191505b509250505060405180910390f35b34801561059d57600080fd5b5061028c611f78565b3480156105b257600080fd5b5061044c611f7e565b3480156105c757600080fd5b5061028c611f8d565b3480156105dc57600080fd5b5061022f600480360360408110156105f357600080fd5b506001600160a01b038135169060200135611f93565b34801561061557600080fd5b5061028c6004803603602081101561062c57600080fd5b50356001600160a01b0316611ff7565b34801561064857600080fd5b5061028c6004803603602081101561065f57600080fd5b5035612009565b34801561067257600080fd5b5061028c612032565b34801561068757600080fd5b5061028c612038565b34801561069c57600080fd5b5061022f600480360360208110156106b357600080fd5b50356001600160a01b031661203e565b3480156106cf57600080fd5b5061028c6120b1565b3480156106e457600080fd5b5061028c600480360360208110156106fb57600080fd5b50356001600160a01b03166120b7565b34801561071757600080fd5b5061028c6120c9565b34801561072c57600080fd5b5061044c6122c0565b34801561074157600080fd5b5061028c6122cf565b34801561075657600080fd5b5061028c6122d5565b34801561076b57600080fd5b5061028c6122db565b34801561078057600080fd5b506107896122f9565b604080519115158252519081900360200190f35b3480156107a957600080fd5b5061028c612302565b3480156107be57600080fd5b5061028c600480360360208110156107d557600080fd5b50356001600160a01b0316612308565b61022f610a8d565b3480156107f957600080fd5b5061028c61231a565b34801561080e57600080fd5b5061022f600480360361024081101561082657600080fd5b81019080806080019060048060200260405190810160405280929190826004602002808284376000920191909152505060408051808201825292959493818101939250906002908390839080828437600092019190915250506040805180820182529295949381810193925090600290839083908082843760009201919091525050604080518082018252929594938181019392509060029083908390808284376000920191909152505060408051606081810190925292959493818101939250906003908390839080828437600092019190915250506040805180820182529295949381810193925090600290839083908082843760009201919091525091948335946020850135949193509150606081019060400135600160201b81111561094f57600080fd5b82018360208201111561096157600080fd5b803590602001918460018302840111600160201b8311171561098257600080fd5b91908080601f016020809104026020016040519081016040528093929190818152602001838380828437600092019190915250929550612320945050505050565b3480156109cf57600080fd5b5061022f600480360360608110156109e657600080fd5b506001600160a01b038135811691602081013590911690604001356127fa565b348015610a1257600080fd5b5061022f612a21565b348015610a2757600080fd5b5061022f60048036036020811015610a3e57600080fd5b50356001600160a01b0316612b69565b348015610a5a57600080fd5b5061044c612c5a565b348015610a6f57600080fd5b5061028c612c69565b348015610a8457600080fd5b5061044c612c6f565b600060785460ff166002811115610aa057fe5b14610adc5760405162461bcd60e51b81526004018080602001828103825260258152602001806136da6025913960400191505060405180910390fd5b606f544210610b1f576040805162461bcd60e51b815260206004820152600a602482015269141bdbdb08195b99195960b21b604482015290519081900360640190fd5b606d5460795410610b69576040805162461bcd60e51b815260206004820152600f60248201526e12185c9918d85c081c995858da1959608a1b604482015290519081900360640190fd5b60003411610bb2576040805162461bcd60e51b8152602060048201526011602482015270043616e7420636f6e74726962757465203607c1b604482015290519081900360640190fd5b336000908152607f6020526040812054610bcc9034612c7e565b9050606a54610be8607954606d54612cdd90919063ffffffff16565b10610c4357606a54811015610c43576040805162461bcd60e51b815260206004820152601c60248201527b135a5b8818dbdb9d1c9a589d5d1a5bdb881b9bdd081c995858da195960221b604482015290519081900360640190fd5b606b54811115610c99576040805162461bcd60e51b815260206004820152601c60248201527b10dbdb9d1c9a589d5d19481b5bdc99481d1a185b88185b1b1bddd95960221b604482015290519081900360640190fd5b606d54607954610ca99034612c7e565b1115610cfc576040805162461bcd60e51b815260206004820152601e60248201527f427579696e6720616d6f756e7420657863656564732068617264206361700000604482015290519081900360640190fd5b336000908152607f6020526040902054610d7b57606554604080516374d5729b60e11b815233600482015230602482015290516001600160a01b039092169163e9aae5369160448082019260009290919082900301818387803b158015610d6257600080fd5b505af1158015610d76573d6000803e3d6000fd5b505050505b336000908152607f60205260409020819055607954610d9a9034612c7e565b607955606954600090610dc290670de0b6b3a764000090610dbc903490612d3a565b90612d93565b905060008111610e035760405162461bcd60e51b815260040180806020018281038252602c8152602001806135ce602c913960400191505060405180910390fd5b33600090815260806020526040902054610e1d9082612c7e565b33600090815260806020526040902055607a54610e3a9082612c7e565b607a8190556040805134815260208101849052808201929092525133917fb2623081601722547aae8781994e01a1974d95b0ad9ce6a0cfbe17487556257f919081900360600190a25050565b6067546001600160a01b03163314610ed7576040805162461bcd60e51b815260206004820152600f60248201526e4f6e6c7920676f7665726e616e636560881b604482015290519081900360640190fd5b607e805460ff1916911515919091179055565b600060785460ff166002811115610efd57fe5b1415610fa657606f54421015610f56576040805162461bcd60e51b8152602060048201526019602482015278506f6f6c206973207374696c6c20696e2070726f677265737360381b604482015290519081900360640190fd5b606c5460795410610fa1576040805162461bcd60e51b815260206004820152601060248201526f14dbd99d0818d85c081c995858da195960821b604482015290519081900360640190fd5b610ff5565b600260785460ff166002811115610fb957fe5b14610ff55760405162461bcd60e51b815260040180806020018281038252603681526020018061355f6036913960400191505060405180910390fd5b3360009081526082602052604090205415611057576040805162461bcd60e51b815260206004820152601e60248201527f416c72656164792077697468647261776e20636f6e747269627574696f6e0000604482015290519081900360640190fd5b33600090815260816020526040902054156110ab576040805162461bcd60e51b815260206004820152600f60248201526e105b1c9958591e4818db185a5b5959608a1b604482015290519081900360640190fd5b336000908152607f60209081526040808320546082909252909120819055607c546110d69082612c7e565b607c55336000818152607f60205260408120556110f39082612df7565b60408051828152905133917f55c89281b35098401836c8ff9988ab46794f3d302e2deb18f9b829e31bde34c9919081900360200190a250565b60765481565b60826020526000908152604090205481565b61114c611f7e565b6001600160a01b0316336001600160a01b0316148061117557506067546001600160a01b031633145b6111b6576040805162461bcd60e51b815260206004820152600d60248201526c27b7363c9037b832b930ba37b960991b604482015290519081900360640190fd5b80516111c990607790602084019061344e565b5050565b60695481565b606f5481565b6001600160a01b0381166000908152607f6020526040812054606b54829190811061120b576000809250925050611296565b60006112156122db565b9050600061122e83606b54612cdd90919063ffffffff16565b90508082111561125b57821561124c57600094509250611296915050565b606a5494509250611296915050565b821561126f57506000935091506112969050565b606a5482101561128757506000935091506112969050565b50606a54935091506112969050565b915091565b6112a3611f7e565b6001600160a01b0316336001600160a01b031614806112cc57506067546001600160a01b031633145b61130d576040805162461bcd60e51b815260206004820152600d60248201526c27b7363c9037b832b930ba37b960991b604482015290519081900360640190fd5b606f5442101561134e5760405162461bcd60e51b81526004018080602001828103825260248152602001806134f06024913960400191505060405180910390fd5b606c54607954106113905760405162461bcd60e51b81526004018080602001828103825260298152602001806138846029913960400191505060405180910390fd5b61142561139b611f7e565b606854604080516370a0823160e01b815230600482015290516001600160a01b03909216916370a0823191602480820192602092909190829003018186803b1580156113e657600080fd5b505afa1580156113fa573d6000803e3d6000fd5b505050506040513d602081101561141057600080fd5b50516068546001600160a01b03169190612ee1565b565b61142f611f7e565b6001600160a01b0316336001600160a01b0316148061145857506067546001600160a01b031633145b611499576040805162461bcd60e51b815260206004820152600d60248201526c27b7363c9037b832b930ba37b960991b604482015290519081900360640190fd5b600060785460ff1660028111156114ac57fe5b146114fe576040805162461bcd60e51b815260206004820181905260248201527f506f6f6c207761732066696e69616c697a6564206f722063616e63656c6c6564604482015290519081900360640190fd5b606d54607954148061151f5750606a54607954606d5461151d91612cdd565b105b8061153b5750606c546079541015801561153b5750606f544210155b611587576040805162461bcd60e51b8152602060048201526018602482015277092e840d2e640dcdee840e8d2daca40e8de40ccd2dcd2e6d60431b604482015290519081900360640190fd5b6078805460ff1916600117905560745442016073556071546079546000916115b691606491610dbc9190612d3a565b905060006115d66064610dbc607054607a54612d3a90919063ffffffff16565b905060006116006064610dbc6075546115fa87607954612cdd90919063ffffffff16565b90612d3a565b90506000611625670de0b6b3a7640000610dbc60725485612d3a90919063ffffffff16565b9050600061163d856116374786612cdd565b90612cdd565b9050600080611661607a5461165b8887612c7e90919063ffffffff16565b90612c7e565b606854604080516370a0823160e01b815230600482015290519293506000926001600160a01b03909216916370a0823191602480820192602092909190829003018186803b1580156116b257600080fd5b505afa1580156116c6573d6000803e3d6000fd5b505050506040513d60208110156116dc57600080fd5b50519050818111156116f5576116f28183612cdd565b92505b60675461170b906001600160a01b031689612df7565b606754606854611728916001600160a01b03918216911689612ee1565b8315611749576117498461173a611f7e565b6001600160a01b031690612df7565b82156117925760765461177957611774611761611f7e565b6068546001600160a01b03169085612ee1565b611792565b606854611792906001600160a01b031661dead85612ee1565b61179d866002612d3a565b607d819055606554604080516321f95b4160e21b81526004810193909352516001600160a01b03909116916387e56d0491602480830192600092919082900301818387803b1580156117ee57600080fd5b505af1158015611802573d6000803e3d6000fd5b50506068546066546040805163095ea7b360e01b81526001600160a01b039283166004820152602481018b9052905191909216935063095ea7b3925060448083019260209291908290030181600087803b15801561185f57600080fd5b505af1158015611873573d6000803e3d6000fd5b505050506040513d602081101561188957600080fd5b50506066546068546040805163f305d71960e01b81526001600160a01b0392831660048201526024810189905260448101899052606481018a90523060848201524260a48201529051600093929092169163f305d719918a9160c480830192606092919082900301818588803b15801561190257600080fd5b505af1158015611916573d6000803e3d6000fd5b50505050506040513d606081101561192d57600080fd5b50604090810151815181815242602082015282519193507fb968440accd1ce5fa60b00de8bb8d8487eb2fda3c3701fb30fea3f69aa910a4892908290030190a1505050505050505050565b600160785460ff16600281111561198b57fe5b146119c75760405162461bcd60e51b81526004018080602001828103825260218152602001806136ff6021913960400191505060405180910390fd5b3360009081526081602052604090205415611a1b576040805162461bcd60e51b815260206004820152600f60248201526e105b1c9958591e4818db185a5b5959608a1b604482015290519081900360640190fd5b336000908152608060209081526040808320546081909252909120819055607b54611a469082612c7e565b607b55606854611a60906001600160a01b03163383612ee1565b607b54604080518381526020810192909252805133927f987d620f307ff6b94d58743cb7a7509f24071586a77759b77c2d4e29f75a2f9a92908290030190a250565b6067546001600160a01b031681565b607a5481565b60785460ff1681565b611ac8612f33565b6001600160a01b0316611ad9611f7e565b6001600160a01b031614611b22576040805162461bcd60e51b81526020600482018190526024820152600080516020613790833981519152604482015290519081900360640190fd5b6033546040516000916001600160a01b0316906000805160206137b0833981519152908390a3603380546001600160a01b0319169055565b606e5481565b60725481565b611b6e611f7e565b6001600160a01b0316336001600160a01b03161480611b9757506067546001600160a01b031633145b611bd8576040805162461bcd60e51b815260206004820152600d60248201526c27b7363c9037b832b930ba37b960991b604482015290519081900360640190fd5b600160785460ff166002811115611beb57fe5b14611c3b576040805162461bcd60e51b815260206004820152601b60248201527a141bdbdb081a185cc81b9bdd081899595b88199a5b985b1a5e9959602a1b604482015290519081900360640190fd5b607354421015611c7c5760405162461bcd60e51b81526004018080602001828103825260228152602001806138166022913960400191505060405180910390fd5b606554607d5460408051634981bb3960e11b81526004810192909252516001600160a01b039092169163930376729160248082019260009290919082900301818387803b158015611ccc57600080fd5b505af1158015611ce0573d6000803e3d6000fd5b50506000607d8190556066546040805163c45a015560e01b815290519294506001600160a01b03909116925063c45a0155916004808301926020929190829003018186803b158015611d3157600080fd5b505afa158015611d45573d6000803e3d6000fd5b505050506040513d6020811015611d5b57600080fd5b5051606654604080516315ab88c960e31b815290519293506000926001600160a01b038086169363e6a439059391169163ad5c464891600480820192602092909190829003018186803b158015611db157600080fd5b505afa158015611dc5573d6000803e3d6000fd5b505050506040513d6020811015611ddb57600080fd5b5051606854604080516001600160e01b031960e086901b1681526001600160a01b039384166004820152929091166024830152516044808301926020929190829003018186803b158015611e2e57600080fd5b505afa158015611e42573d6000803e3d6000fd5b505050506040513d6020811015611e5857600080fd5b505190506111c9611e67611f7e565b604080516370a0823160e01b815230600482015290516001600160a01b038516916370a08231916024808301926020929190829003018186803b158015611ead57600080fd5b505afa158015611ec1573d6000803e3d6000fd5b505050506040513d6020811015611ed757600080fd5b50516001600160a01b0384169190612ee1565b6077805460408051602060026001851615610100026000190190941693909304601f81018490048402820184019092528181529291830182828015611f705780601f10611f4557610100808354040283529160200191611f70565b820191906000526020600020905b815481529060010190602001808311611f5357829003601f168201915b505050505081565b606b5481565b6033546001600160a01b031690565b606c5481565b6067546001600160a01b03163314611fe4576040805162461bcd60e51b815260206004820152600f60248201526e4f6e6c7920676f7665726e616e636560881b604482015290519081900360640190fd5b6111c96001600160a01b03831682612df7565b60806020526000908152604090205481565b600061202c670de0b6b3a7640000610dbc60695485612d3a90919063ffffffff16565b92915050565b60745481565b606a5481565b6067546001600160a01b0316331461208f576040805162461bcd60e51b815260206004820152600f60248201526e4f6e6c7920676f7665726e616e636560881b604482015290519081900360640190fd5b606780546001600160a01b0319166001600160a01b0392909216919091179055565b60755481565b60816020526000908152604090205481565b600080606660009054906101000a90046001600160a01b03166001600160a01b031663c45a01556040518163ffffffff1660e01b815260040160206040518083038186803b15801561211a57600080fd5b505afa15801561212e573d6000803e3d6000fd5b505050506040513d602081101561214457600080fd5b5051606654604080516315ab88c960e31b815290519293506000926001600160a01b038086169363e6a439059391169163ad5c464891600480820192602092909190829003018186803b15801561219a57600080fd5b505afa1580156121ae573d6000803e3d6000fd5b505050506040513d60208110156121c457600080fd5b5051606854604080516001600160e01b031960e086901b1681526001600160a01b039384166004820152929091166024830152516044808301926020929190829003018186803b15801561221757600080fd5b505afa15801561222b573d6000803e3d6000fd5b505050506040513d602081101561224157600080fd5b5051604080516370a0823160e01b815230600482015290519192506001600160a01b038316916370a0823191602480820192602092909190829003018186803b15801561228d57600080fd5b505afa1580156122a1573d6000803e3d6000fd5b505050506040513d60208110156122b757600080fd5b50519250505090565b6065546001600160a01b031681565b60795481565b60735481565b60006122f4607954606d54612cdd90919063ffffffff16565b905090565b607e5460ff1681565b607b5481565b607f6020526000908152604090205481565b607c5481565b600054610100900460ff16806123395750612339612f37565b80612347575060005460ff16155b6123825760405162461bcd60e51b815260040180806020018281038252602e815260200180613720602e913960400191505060405180910390fd5b600054610100900460ff161580156123ad576000805460ff1961ff0019909116610100171660011790555b6065546001600160a01b0316156123fd576040805162461bcd60e51b815260206004820152600f60248201526e2837b7b61d102337b93134b23232b760891b604482015290519081900360640190fd5b89516001600160a01b0316612451576040805162461bcd60e51b8152602060048201526015602482015274496e76616c6964206f776e6572206164647265737360581b604482015290519081900360640190fd5b6020880151885111156124955760405162461bcd60e51b81526004018080602001828103825260398152602001806135956039913960400191505060405180910390fd5b602087015187516124a7906002612d3a565b101580156124ba57506020870151875111155b6124f55760405162461bcd60e51b815260040180806020018281038252602181526020018061374e6021913960400191505060405180910390fd5b855142106125345760405162461bcd60e51b81526004018080602001828103825260228152602001806138626022913960400191505060405180910390fd5b60208601518651106125775760405162461bcd60e51b81526004018080602001828103825260218152602001806138ad6021913960400191505060405180910390fd5b604086015161012c11156125bc5760405162461bcd60e51b81526004018080602001828103825260468152602001806136346046913960600191505060405180910390fd5b84516064101580156125cc575060015b80156125dd57506020850151606410155b6126185760405162461bcd60e51b81526004018080602001828103825260338152602001806138f86033913960400191505060405180910390fd5b60208901518951101561265c5760405162461bcd60e51b81526004018080602001828103825260468152602001806137d06046913960600191505060405180910390fd5b6033841015801561266e575060648411155b6126be576040805162461bcd60e51b815260206004820152601c60248201527b496e76616c6964206c69717569646974792070657263656e7461676560201b604482015290519081900360640190fd5b8215806126cb5750826001145b6127065760405162461bcd60e51b815260040180806020018281038252602a815260200180613838602a913960400191505060405180910390fd5b61270e612f48565b895161271990612b69565b606580546001600160a01b0319908116331790915560208b8101516068805484166001600160a01b039283161790556040808e015160668054861691841691909117905560608e0151606780549095169216919091179092558a516069558a8101516072558951606a5589810151606b558851606c5588810151606d558751606e5587810151606f55908701516074558551607055858101516071556075859055607684905582516127d1916077919085019061344e565b506078805460ff1916905580156127ee576000805461ff00191690555b50505050505050505050565b6067546001600160a01b0316331461284b576040805162461bcd60e51b815260206004820152600f60248201526e4f6e6c7920676f7665726e616e636560881b604482015290519081900360640190fd5b6066546040805163c45a015560e01b815290516000926001600160a01b03169163c45a0155916004808301926020929190829003018186803b15801561289057600080fd5b505afa1580156128a4573d6000803e3d6000fd5b505050506040513d60208110156128ba57600080fd5b5051606654604080516315ab88c960e31b815290519293506000926001600160a01b038086169363e6a439059391169163ad5c464891600480820192602092909190829003018186803b15801561291057600080fd5b505afa158015612924573d6000803e3d6000fd5b505050506040513d602081101561293a57600080fd5b5051606854604080516001600160e01b031960e086901b1681526001600160a01b039384166004820152929091166024830152516044808301926020929190829003018186803b15801561298d57600080fd5b505afa1580156129a1573d6000803e3d6000fd5b505050506040513d60208110156129b757600080fd5b505190506001600160a01b038581169082161415612a065760405162461bcd60e51b815260040180806020018281038252603a81526020018061367a603a913960400191505060405180910390fd5b612a1a6001600160a01b0386168585612ee1565b5050505050565b612a29611f7e565b6001600160a01b0316336001600160a01b03161480612a5257506067546001600160a01b031633145b612a93576040805162461bcd60e51b815260206004820152600d60248201526c27b7363c9037b832b930ba37b960991b604482015290519081900360640190fd5b600060785460ff166002811115612aa657fe5b14612ae25760405162461bcd60e51b815260040180806020018281038252602581526020018061353a6025913960400191505060405180910390fd5b6078805460ff1916600217905560655460685460408051635f7d7c5360e11b81526001600160a01b0392831660048201523060248201529051919092169163befaf8a691604480830192600092919082900301818387803b158015612b4657600080fd5b505af1158015612b5a573d6000803e3d6000fd5b5050505061142561139b611f7e565b612b71612f33565b6001600160a01b0316612b82611f7e565b6001600160a01b031614612bcb576040805162461bcd60e51b81526020600482018190526024820152600080516020613790833981519152604482015290519081900360640190fd5b6001600160a01b038116612c105760405162461bcd60e51b81526004018080602001828103825260268152602001806135146026913960400191505060405180910390fd5b6033546040516001600160a01b038084169216906000805160206137b083398151915290600090a3603380546001600160a01b0319166001600160a01b0392909216919091179055565b6066546001600160a01b031681565b606d5481565b6068546001600160a01b031681565b600082820183811015612cd6576040805162461bcd60e51b815260206004820152601b60248201527a536166654d6174683a206164646974696f6e206f766572666c6f7760281b604482015290519081900360640190fd5b9392505050565b600082821115612d34576040805162461bcd60e51b815260206004820152601e60248201527f536166654d6174683a207375627472616374696f6e206f766572666c6f770000604482015290519081900360640190fd5b50900390565b600082612d495750600061202c565b82820282848281612d5657fe5b0414612cd65760405162461bcd60e51b815260040180806020018281038252602181526020018061376f6021913960400191505060405180910390fd5b6000808211612de6576040805162461bcd60e51b815260206004820152601a602482015279536166654d6174683a206469766973696f6e206279207a65726f60301b604482015290519081900360640190fd5b818381612def57fe5b049392505050565b80471015612e4c576040805162461bcd60e51b815260206004820152601d60248201527f416464726573733a20696e73756666696369656e742062616c616e6365000000604482015290519081900360640190fd5b6040516000906001600160a01b0384169083908381818185875af1925050503d8060008114612e97576040519150601f19603f3d011682016040523d82523d6000602084013e612e9c565b606091505b5050905080612edc5760405162461bcd60e51b815260040180806020018281038252603a8152602001806135fa603a913960400191505060405180910390fd5b505050565b604080516001600160a01b038416602482015260448082018490528251808303909101815260649091019091526020810180516001600160e01b031663a9059cbb60e01b179052612edc908490612ffa565b3390565b6000612f42306130ab565b15905090565b600054610100900460ff1680612f615750612f61612f37565b80612f6f575060005460ff16155b612faa5760405162461bcd60e51b815260040180806020018281038252602e815260200180613720602e913960400191505060405180910390fd5b600054610100900460ff16158015612fd5576000805460ff1961ff0019909116610100171660011790555b612fdd6130b1565b612fe5613151565b8015612ff7576000805461ff00191690555b50565b600061304f826040518060400160405280602081526020017f5361666545524332303a206c6f772d6c6576656c2063616c6c206661696c6564815250856001600160a01b03166132389092919063ffffffff16565b805190915015612edc5780806020019051602081101561306e57600080fd5b5051612edc5760405162461bcd60e51b815260040180806020018281038252602a8152602001806138ce602a913960400191505060405180910390fd5b3b151590565b600054610100900460ff16806130ca57506130ca612f37565b806130d8575060005460ff16155b6131135760405162461bcd60e51b815260040180806020018281038252602e815260200180613720602e913960400191505060405180910390fd5b600054610100900460ff16158015612fe5576000805460ff1961ff0019909116610100171660011790558015612ff7576000805461ff001916905550565b600054610100900460ff168061316a575061316a612f37565b80613178575060005460ff16155b6131b35760405162461bcd60e51b815260040180806020018281038252602e815260200180613720602e913960400191505060405180910390fd5b600054610100900460ff161580156131de576000805460ff1961ff0019909116610100171660011790555b60006131e8612f33565b603380546001600160a01b0319166001600160a01b038316908117909155604051919250906000906000805160206137b0833981519152908290a3508015612ff7576000805461ff001916905550565b6060613247848460008561324f565b949350505050565b6060824710156132905760405162461bcd60e51b81526004018080602001828103825260268152602001806136b46026913960400191505060405180910390fd5b613299856130ab565b6132ea576040805162461bcd60e51b815260206004820152601d60248201527f416464726573733a2063616c6c20746f206e6f6e2d636f6e7472616374000000604482015290519081900360640190fd5b600080866001600160a01b031685876040518082805190602001908083835b602083106133285780518252601f199092019160209182019101613309565b6001836020036101000a03801982511681845116808217855250505050505090500191505060006040518083038185875af1925050503d806000811461338a576040519150601f19603f3d011682016040523d82523d6000602084013e61338f565b606091505b509150915061339f8282866133aa565b979650505050505050565b606083156133b9575081612cd6565b8251156133c95782518084602001fd5b8160405162461bcd60e51b81526004018080602001828103825283818151815260200191508051906020019080838360005b838110156134135781810151838201526020016133fb565b50505050905090810190601f1680156134405780820380516001836020036101000a031916815260200191505b509250505060405180910390fd5b828054600181600116156101000203166002900490600052602060002090601f01602090048101928261348457600085556134ca565b82601f1061349d57805160ff19168380011785556134ca565b828001600101855582156134ca579182015b828111156134ca5782518255916020019190600101906134af565b506134d69291506134da565b5090565b5b808211156134d657600081556001016134db56fe4974206973206e6f742074696d6520746f207769746864726177206c6566746f766572734f776e61626c653a206e6577206f776e657220697320746865207a65726f2061646472657373506f6f6c20776173206569746865722066696e6973686564206f722063616e63656c6c656443616e6e6f7420776974686472617720636f6e747269627574696f6e206265636175736520706f6f6c20697320636f6d706c657465644d696e20636f6e747269627574696f6e20616d6f756e74206d757374206265206c657373207468616e206f7220657175616c20746f206d6178436f6e747269627574696f6e20746f6f20736d616c6c20746f2070726f6475636520616e7920766f6c756d65416464726573733a20756e61626c6520746f2073656e642076616c75652c20726563697069656e74206d617920686176652072657665727465644c697175696469747920756e6c6f636b2074696d65206d757374206265206174206c65617374203330206461797320616674657220706f6f6c2069732066696e616c697a656443616e6e6f74207769746864726177206c69717569646974792e205573652077697468647261774c6971756964697479282920696e7374656164416464726573733a20696e73756666696369656e742062616c616e636520666f722063616c6c506f6f6c2069732065697468657220636f6d706c65746564206f722063616e63656c6c65644f776e657220686173206e6f7420636c6f7365642074686520706f6f6c20796574496e697469616c697a61626c653a20636f6e747261637420697320616c726561647920696e697469616c697a6564536f6674636170206d757374206265203e3d20353025206f662068617264636170536166654d6174683a206d756c7469706c69636174696f6e206f766572666c6f774f776e61626c653a2063616c6c6572206973206e6f7420746865206f776e65728be0079c531659141344cd1fd0a4f28419497f9722a3daafe3b4186f6b6457e04c6971756964697479206c697374696e672072617465206d757374206265206c657373207468616e206f7220657175616c20746f20706f6f6c206c697374696e6720726174654974206973206e6f742074696d6520746f20756e6c6f636b206c6971756964697479526566756e642074797065206d75737420626520302028726566756e6429206f72203120286275726e2953746172742074696d652073686f756c6420626520696e2074686520667574757265536f66742063617020726561636865642c2063616c6c2066696e616c697a65282920696e7374656164456e642074696d65206d7573742062652061667465722073746172742074696d655361666545524332303a204552433230206f7065726174696f6e20646964206e6f742073756363656564496e76616c6964206665652073657474696e67732e204d7573742062652070657263656e74616765202830202d3e2031303029a2646970667358221220eeb3e9a209698ffb004c76988baeee1cf8592c851fc7b72a257a506ab7239b7364736f6c63430007060033",
  "immutableReferences": {},
  "source": "\r\n// SPDX-License-Identifier: MIT\r\n\r\nlibrary AddressUpgradeable {\r\n    /**\r\n     * @dev Returns true if `account` is a contract.\r\n     *\r\n     * [IMPORTANT]\r\n     * ====\r\n     * It is unsafe to assume that an address for which this function returns\r\n     * false is an externally-owned account (EOA) and not a contract.\r\n     *\r\n     * Among others, `isContract` will return false for the following\r\n     * types of addresses:\r\n     *\r\n     *  - an externally-owned account\r\n     *  - a contract in construction\r\n     *  - an address where a contract will be created\r\n     *  - an address where a contract lived, but was destroyed\r\n     * ====\r\n     */\r\n    function isContract(address account) internal view returns (bool) {\r\n        // This method relies on extcodesize, which returns 0 for contracts in\r\n        // construction, since the code is only stored at the end of the\r\n        // constructor execution.\r\n\r\n        uint256 size;\r\n        // solhint-disable-next-line no-inline-assembly\r\n        assembly { size := extcodesize(account) }\r\n        return size > 0;\r\n    }\r\n\r\n    /**\r\n     * @dev Replacement for Solidity's `transfer`: sends `amount` wei to\r\n     * `recipient`, forwarding all available gas and reverting on errors.\r\n     *\r\n     * https://eips.ethereum.org/EIPS/eip-1884[EIP1884] increases the gas cost\r\n     * of certain opcodes, possibly making contracts go over the 2300 gas limit\r\n     * imposed by `transfer`, making them unable to receive funds via\r\n     * `transfer`. {sendValue} removes this limitation.\r\n     *\r\n     * https://diligence.consensys.net/posts/2019/09/stop-using-soliditys-transfer-now/[Learn more].\r\n     *\r\n     * IMPORTANT: because control is transferred to `recipient`, care must be\r\n     * taken to not create reentrancy vulnerabilities. Consider using\r\n     * {ReentrancyGuard} or the\r\n     * https://solidity.readthedocs.io/en/v0.5.11/security-considerations.html#use-the-checks-effects-interactions-pattern[checks-effects-interactions pattern].\r\n     */\r\n    function sendValue(address payable recipient, uint256 amount) internal {\r\n        require(address(this).balance >= amount, \"Address: insufficient balance\");\r\n\r\n        // solhint-disable-next-line avoid-low-level-calls, avoid-call-value\r\n        (bool success, ) = recipient.call{ value: amount }(\"\");\r\n        require(success, \"Address: unable to send value, recipient may have reverted\");\r\n    }\r\n\r\n    /**\r\n     * @dev Performs a Solidity function call using a low level `call`. A\r\n     * plain`call` is an unsafe replacement for a function call: use this\r\n     * function instead.\r\n     *\r\n     * If `target` reverts with a revert reason, it is bubbled up by this\r\n     * function (like regular Solidity function calls).\r\n     *\r\n     * Returns the raw returned data. To convert to the expected return value,\r\n     * use https://solidity.readthedocs.io/en/latest/units-and-global-variables.html?highlight=abi.decode#abi-encoding-and-decoding-functions[`abi.decode`].\r\n     *\r\n     * Requirements:\r\n     *\r\n     * - `target` must be a contract.\r\n     * - calling `target` with `data` must not revert.\r\n     *\r\n     * _Available since v3.1._\r\n     */\r\n    function functionCall(address target, bytes memory data) internal returns (bytes memory) {\r\n      return functionCall(target, data, \"Address: low-level call failed\");\r\n    }\r\n\r\n    /**\r\n     * @dev Same as {xref-Address-functionCall-address-bytes-}[`functionCall`], but with\r\n     * `errorMessage` as a fallback revert reason when `target` reverts.\r\n     *\r\n     * _Available since v3.1._\r\n     */\r\n    function functionCall(address target, bytes memory data, string memory errorMessage) internal returns (bytes memory) {\r\n        return functionCallWithValue(target, data, 0, errorMessage);\r\n    }\r\n\r\n    /**\r\n     * @dev Same as {xref-Address-functionCall-address-bytes-}[`functionCall`],\r\n     * but also transferring `value` wei to `target`.\r\n     *\r\n     * Requirements:\r\n     *\r\n     * - the calling contract must have an ETH balance of at least `value`.\r\n     * - the called Solidity function must be `payable`.\r\n     *\r\n     * _Available since v3.1._\r\n     */\r\n    function functionCallWithValue(address target, bytes memory data, uint256 value) internal returns (bytes memory) {\r\n        return functionCallWithValue(target, data, value, \"Address: low-level call with value failed\");\r\n    }\r\n\r\n    /**\r\n     * @dev Same as {xref-Address-functionCallWithValue-address-bytes-uint256-}[`functionCallWithValue`], but\r\n     * with `errorMessage` as a fallback revert reason when `target` reverts.\r\n     *\r\n     * _Available since v3.1._\r\n     */\r\n    function functionCallWithValue(address target, bytes memory data, uint256 value, string memory errorMessage) internal returns (bytes memory) {\r\n        require(address(this).balance >= value, \"Address: insufficient balance for call\");\r\n        require(isContract(target), \"Address: call to non-contract\");\r\n\r\n        // solhint-disable-next-line avoid-low-level-calls\r\n        (bool success, bytes memory returndata) = target.call{ value: value }(data);\r\n        return _verifyCallResult(success, returndata, errorMessage);\r\n    }\r\n\r\n    /**\r\n     * @dev Same as {xref-Address-functionCall-address-bytes-}[`functionCall`],\r\n     * but performing a static call.\r\n     *\r\n     * _Available since v3.3._\r\n     */\r\n    function functionStaticCall(address target, bytes memory data) internal view returns (bytes memory) {\r\n        return functionStaticCall(target, data, \"Address: low-level static call failed\");\r\n    }\r\n\r\n    /**\r\n     * @dev Same as {xref-Address-functionCall-address-bytes-string-}[`functionCall`],\r\n     * but performing a static call.\r\n     *\r\n     * _Available since v3.3._\r\n     */\r\n    function functionStaticCall(address target, bytes memory data, string memory errorMessage) internal view returns (bytes memory) {\r\n        require(isContract(target), \"Address: static call to non-contract\");\r\n\r\n        // solhint-disable-next-line avoid-low-level-calls\r\n        (bool success, bytes memory returndata) = target.staticcall(data);\r\n        return _verifyCallResult(success, returndata, errorMessage);\r\n    }\r\n\r\n    function _verifyCallResult(bool success, bytes memory returndata, string memory errorMessage) private pure returns(bytes memory) {\r\n        if (success) {\r\n            return returndata;\r\n        } else {\r\n            // Look for revert reason and bubble it up if present\r\n            if (returndata.length > 0) {\r\n                // The easiest way to bubble the revert reason is using memory via assembly\r\n\r\n                // solhint-disable-next-line no-inline-assembly\r\n                assembly {\r\n                    let returndata_size := mload(returndata)\r\n                    revert(add(32, returndata), returndata_size)\r\n                }\r\n            } else {\r\n                revert(errorMessage);\r\n            }\r\n        }\r\n    }\r\n}\r\n\r\n\r\n// Dependency file: @openzeppelin/contracts-upgradeable/proxy/Initializable.sol\r\n\r\n\r\n// solhint-disable-next-line compiler-version\r\n// pragma solidity >=0.4.24 <0.8.0;\r\n\r\n// import \"@openzeppelin/contracts-upgradeable/utils/AddressUpgradeable.sol\";\r\n\r\n/**\r\n * @dev This is a base contract to aid in writing upgradeable contracts, or any kind of contract that will be deployed\r\n * behind a proxy. Since a proxied contract can't have a constructor, it's common to move constructor logic to an\r\n * external initializer function, usually called `initialize`. It then becomes necessary to protect this initializer\r\n * function so it can only be called once. The {initializer} modifier provided by this contract will have this effect.\r\n *\r\n * TIP: To avoid leaving the proxy in an uninitialized state, the initializer function should be called as early as\r\n * possible by providing the encoded function call as the `_data` argument to {UpgradeableProxy-constructor}.\r\n *\r\n * CAUTION: When used with inheritance, manual care must be taken to not invoke a parent initializer twice, or to ensure\r\n * that all initializers are idempotent. This is not verified automatically as constructors are by Solidity.\r\n */\r\nabstract contract Initializable {\r\n\r\n    /**\r\n     * @dev Indicates that the contract has been initialized.\r\n     */\r\n    bool private _initialized;\r\n\r\n    /**\r\n     * @dev Indicates that the contract is in the process of being initialized.\r\n     */\r\n    bool private _initializing;\r\n\r\n    /**\r\n     * @dev Modifier to protect an initializer function from being invoked twice.\r\n     */\r\n    modifier initializer() {\r\n        require(_initializing || _isConstructor() || !_initialized, \"Initializable: contract is already initialized\");\r\n\r\n        bool isTopLevelCall = !_initializing;\r\n        if (isTopLevelCall) {\r\n            _initializing = true;\r\n            _initialized = true;\r\n        }\r\n\r\n        _;\r\n\r\n        if (isTopLevelCall) {\r\n            _initializing = false;\r\n        }\r\n    }\r\n\r\n    /// @dev Returns true if and only if the function is running in the constructor\r\n    function _isConstructor() private view returns (bool) {\r\n        return !AddressUpgradeable.isContract(address(this));\r\n    }\r\n}\r\n\r\n\r\n// Dependency file: @openzeppelin/contracts-upgradeable/utils/ContextUpgradeable.sol\r\n\r\n\r\n// pragma solidity >=0.6.0 <0.8.0;\r\n// import \"@openzeppelin/contracts-upgradeable/proxy/Initializable.sol\";\r\n\r\n/*\r\n * @dev Provides information about the current execution context, including the\r\n * sender of the transaction and its data. While these are generally available\r\n * via msg.sender and msg.data, they should not be accessed in such a direct\r\n * manner, since when dealing with GSN meta-transactions the account sending and\r\n * paying for execution may not be the actual sender (as far as an application\r\n * is concerned).\r\n *\r\n * This contract is only required for intermediate, library-like contracts.\r\n */\r\nabstract contract ContextUpgradeable is Initializable {\r\n    function __Context_init() internal initializer {\r\n        __Context_init_unchained();\r\n    }\r\n\r\n    function __Context_init_unchained() internal initializer {\r\n    }\r\n    function _msgSender() internal view virtual returns (address payable) {\r\n        return msg.sender;\r\n    }\r\n\r\n    function _msgData() internal view virtual returns (bytes memory) {\r\n        this; // silence state mutability warning without generating bytecode - see https://github.com/ethereum/solidity/issues/2691\r\n        return msg.data;\r\n    }\r\n    uint256[50] private __gap;\r\n}\r\n\r\n\r\n// Dependency file: @openzeppelin/contracts-upgradeable/access/OwnableUpgradeable.sol\r\n\r\n\r\n// pragma solidity >=0.6.0 <0.8.0;\r\n\r\n// import \"@openzeppelin/contracts-upgradeable/utils/ContextUpgradeable.sol\";\r\n// import \"@openzeppelin/contracts-upgradeable/proxy/Initializable.sol\";\r\n/**\r\n * @dev Contract module which provides a basic access control mechanism, where\r\n * there is an account (an owner) that can be granted exclusive access to\r\n * specific functions.\r\n *\r\n * By default, the owner account will be the one that deploys the contract. This\r\n * can later be changed with {transferOwnership}.\r\n *\r\n * This module is used through inheritance. It will make available the modifier\r\n * `onlyOwner`, which can be applied to your functions to restrict their use to\r\n * the owner.\r\n */\r\nabstract contract OwnableUpgradeable is Initializable, ContextUpgradeable {\r\n    address private _owner;\r\n\r\n    event OwnershipTransferred(address indexed previousOwner, address indexed newOwner);\r\n\r\n    /**\r\n     * @dev Initializes the contract setting the deployer as the initial owner.\r\n     */\r\n    function __Ownable_init() internal initializer {\r\n        __Context_init_unchained();\r\n        __Ownable_init_unchained();\r\n    }\r\n\r\n    function __Ownable_init_unchained() internal initializer {\r\n        address msgSender = _msgSender();\r\n        _owner = msgSender;\r\n        emit OwnershipTransferred(address(0), msgSender);\r\n    }\r\n\r\n    /**\r\n     * @dev Returns the address of the current owner.\r\n     */\r\n    function owner() public view virtual returns (address) {\r\n        return _owner;\r\n    }\r\n\r\n    /**\r\n     * @dev Throws if called by any account other than the owner.\r\n     */\r\n    modifier onlyOwner() {\r\n        require(owner() == _msgSender(), \"Ownable: caller is not the owner\");\r\n        _;\r\n    }\r\n\r\n    /**\r\n     * @dev Leaves the contract without owner. It will not be possible to call\r\n     * `onlyOwner` functions anymore. Can only be called by the current owner.\r\n     *\r\n     * NOTE: Renouncing ownership will leave the contract without an owner,\r\n     * thereby removing any functionality that is only available to the owner.\r\n     */\r\n    function renounceOwnership() public virtual onlyOwner {\r\n        emit OwnershipTransferred(_owner, address(0));\r\n        _owner = address(0);\r\n    }\r\n\r\n    /**\r\n     * @dev Transfers ownership of the contract to a new account (`newOwner`).\r\n     * Can only be called by the current owner.\r\n     */\r\n    function transferOwnership(address newOwner) public virtual onlyOwner {\r\n        require(newOwner != address(0), \"Ownable: new owner is the zero address\");\r\n        emit OwnershipTransferred(_owner, newOwner);\r\n        _owner = newOwner;\r\n    }\r\n    uint256[49] private __gap;\r\n}\r\n\r\n\r\n// Dependency file: @openzeppelin/contracts/token/ERC20/IERC20.sol\r\n\r\n\r\n// pragma solidity ^0.7.0;\r\n\r\n/**\r\n * @dev Interface of the ERC20 standard as defined in the EIP.\r\n */\r\ninterface IERC20 {\r\n    /**\r\n     * @dev Returns the amount of tokens in existence.\r\n     */\r\n    function totalSupply() external view returns (uint256);\r\n\r\n    /**\r\n     * @dev Returns the amount of tokens owned by `account`.\r\n     */\r\n    function balanceOf(address account) external view returns (uint256);\r\n\r\n    /**\r\n     * @dev Moves `amount` tokens from the caller's account to `recipient`.\r\n     *\r\n     * Returns a boolean value indicating whether the operation succeeded.\r\n     *\r\n     * Emits a {Transfer} event.\r\n     */\r\n    function transfer(address recipient, uint256 amount) external returns (bool);\r\n\r\n    /**\r\n     * @dev Returns the remaining number of tokens that `spender` will be\r\n     * allowed to spend on behalf of `owner` through {transferFrom}. This is\r\n     * zero by default.\r\n     *\r\n     * This value changes when {approve} or {transferFrom} are called.\r\n     */\r\n    function allowance(address owner, address spender) external view returns (uint256);\r\n\r\n    /**\r\n     * @dev Sets `amount` as the allowance of `spender` over the caller's tokens.\r\n     *\r\n     * Returns a boolean value indicating whether the operation succeeded.\r\n     *\r\n     * IMPORTANT: Beware that changing an allowance with this method brings the risk\r\n     * that someone may use both the old and the new allowance by unfortunate\r\n     * transaction ordering. One possible solution to mitigate this race\r\n     * condition is to first reduce the spender's allowance to 0 and set the\r\n     * desired value afterwards:\r\n     * https://github.com/ethereum/EIPs/issues/20#issuecomment-263524729\r\n     *\r\n     * Emits an {Approval} event.\r\n     */\r\n    function approve(address spender, uint256 amount) external returns (bool);\r\n\r\n    /**\r\n     * @dev Moves `amount` tokens from `sender` to `recipient` using the\r\n     * allowance mechanism. `amount` is then deducted from the caller's\r\n     * allowance.\r\n     *\r\n     * Returns a boolean value indicating whether the operation succeeded.\r\n     *\r\n     * Emits a {Transfer} event.\r\n     */\r\n    function transferFrom(address sender, address recipient, uint256 amount) external returns (bool);\r\n\r\n    /**\r\n     * @dev Emitted when `value` tokens are moved from one account (`from`) to\r\n     * another (`to`).\r\n     *\r\n     * Note that `value` may be zero.\r\n     */\r\n    event Transfer(address indexed from, address indexed to, uint256 value);\r\n\r\n    /**\r\n     * @dev Emitted when the allowance of a `spender` for an `owner` is set by\r\n     * a call to {approve}. `value` is the new allowance.\r\n     */\r\n    event Approval(address indexed owner, address indexed spender, uint256 value);\r\n}\r\n\r\n\r\n// Dependency file: @openzeppelin/contracts/math/SafeMath.sol\r\n\r\n\r\n// pragma solidity ^0.7.0;\r\n\r\n/**\r\n * @dev Wrappers over Solidity's arithmetic operations with added overflow\r\n * checks.\r\n *\r\n * Arithmetic operations in Solidity wrap on overflow. This can easily result\r\n * in bugs, because programmers usually assume that an overflow raises an\r\n * error, which is the standard behavior in high level programming languages.\r\n * `SafeMath` restores this intuition by reverting the transaction when an\r\n * operation overflows.\r\n *\r\n * Using this library instead of the unchecked operations eliminates an entire\r\n * class of bugs, so it's recommended to use it always.\r\n */\r\nlibrary SafeMath {\r\n    /**\r\n     * @dev Returns the addition of two unsigned integers, with an overflow flag.\r\n     *\r\n     * _Available since v3.4._\r\n     */\r\n    function tryAdd(uint256 a, uint256 b) internal pure returns (bool, uint256) {\r\n        uint256 c = a + b;\r\n        if (c < a) return (false, 0);\r\n        return (true, c);\r\n    }\r\n\r\n    /**\r\n     * @dev Returns the substraction of two unsigned integers, with an overflow flag.\r\n     *\r\n     * _Available since v3.4._\r\n     */\r\n    function trySub(uint256 a, uint256 b) internal pure returns (bool, uint256) {\r\n        if (b > a) return (false, 0);\r\n        return (true, a - b);\r\n    }\r\n\r\n    /**\r\n     * @dev Returns the multiplication of two unsigned integers, with an overflow flag.\r\n     *\r\n     * _Available since v3.4._\r\n     */\r\n    function tryMul(uint256 a, uint256 b) internal pure returns (bool, uint256) {\r\n        // Gas optimization: this is cheaper than requiring 'a' not being zero, but the\r\n        // benefit is lost if 'b' is also tested.\r\n        // See: https://github.com/OpenZeppelin/openzeppelin-contracts/pull/522\r\n        if (a == 0) return (true, 0);\r\n        uint256 c = a * b;\r\n        if (c / a != b) return (false, 0);\r\n        return (true, c);\r\n    }\r\n\r\n    /**\r\n     * @dev Returns the division of two unsigned integers, with a division by zero flag.\r\n     *\r\n     * _Available since v3.4._\r\n     */\r\n    function tryDiv(uint256 a, uint256 b) internal pure returns (bool, uint256) {\r\n        if (b == 0) return (false, 0);\r\n        return (true, a / b);\r\n    }\r\n\r\n    /**\r\n     * @dev Returns the remainder of dividing two unsigned integers, with a division by zero flag.\r\n     *\r\n     * _Available since v3.4._\r\n     */\r\n    function tryMod(uint256 a, uint256 b) internal pure returns (bool, uint256) {\r\n        if (b == 0) return (false, 0);\r\n        return (true, a % b);\r\n    }\r\n\r\n    /**\r\n     * @dev Returns the addition of two unsigned integers, reverting on\r\n     * overflow.\r\n     *\r\n     * Counterpart to Solidity's `+` operator.\r\n     *\r\n     * Requirements:\r\n     *\r\n     * - Addition cannot overflow.\r\n     */\r\n    function add(uint256 a, uint256 b) internal pure returns (uint256) {\r\n        uint256 c = a + b;\r\n        require(c >= a, \"SafeMath: addition overflow\");\r\n        return c;\r\n    }\r\n\r\n    /**\r\n     * @dev Returns the subtraction of two unsigned integers, reverting on\r\n     * overflow (when the result is negative).\r\n     *\r\n     * Counterpart to Solidity's `-` operator.\r\n     *\r\n     * Requirements:\r\n     *\r\n     * - Subtraction cannot overflow.\r\n     */\r\n    function sub(uint256 a, uint256 b) internal pure returns (uint256) {\r\n        require(b <= a, \"SafeMath: subtraction overflow\");\r\n        return a - b;\r\n    }\r\n\r\n    /**\r\n     * @dev Returns the multiplication of two unsigned integers, reverting on\r\n     * overflow.\r\n     *\r\n     * Counterpart to Solidity's `*` operator.\r\n     *\r\n     * Requirements:\r\n     *\r\n     * - Multiplication cannot overflow.\r\n     */\r\n    function mul(uint256 a, uint256 b) internal pure returns (uint256) {\r\n        if (a == 0) return 0;\r\n        uint256 c = a * b;\r\n        require(c / a == b, \"SafeMath: multiplication overflow\");\r\n        return c;\r\n    }\r\n\r\n    /**\r\n     * @dev Returns the integer division of two unsigned integers, reverting on\r\n     * division by zero. The result is rounded towards zero.\r\n     *\r\n     * Counterpart to Solidity's `/` operator. Note: this function uses a\r\n     * `revert` opcode (which leaves remaining gas untouched) while Solidity\r\n     * uses an invalid opcode to revert (consuming all remaining gas).\r\n     *\r\n     * Requirements:\r\n     *\r\n     * - The divisor cannot be zero.\r\n     */\r\n    function div(uint256 a, uint256 b) internal pure returns (uint256) {\r\n        require(b > 0, \"SafeMath: division by zero\");\r\n        return a / b;\r\n    }\r\n\r\n    /**\r\n     * @dev Returns the remainder of dividing two unsigned integers. (unsigned integer modulo),\r\n     * reverting when dividing by zero.\r\n     *\r\n     * Counterpart to Solidity's `%` operator. This function uses a `revert`\r\n     * opcode (which leaves remaining gas untouched) while Solidity uses an\r\n     * invalid opcode to revert (consuming all remaining gas).\r\n     *\r\n     * Requirements:\r\n     *\r\n     * - The divisor cannot be zero.\r\n     */\r\n    function mod(uint256 a, uint256 b) internal pure returns (uint256) {\r\n        require(b > 0, \"SafeMath: modulo by zero\");\r\n        return a % b;\r\n    }\r\n\r\n    /**\r\n     * @dev Returns the subtraction of two unsigned integers, reverting with custom message on\r\n     * overflow (when the result is negative).\r\n     *\r\n     * CAUTION: This function is deprecated because it requires allocating memory for the error\r\n     * message unnecessarily. For custom revert reasons use {trySub}.\r\n     *\r\n     * Counterpart to Solidity's `-` operator.\r\n     *\r\n     * Requirements:\r\n     *\r\n     * - Subtraction cannot overflow.\r\n     */\r\n    function sub(uint256 a, uint256 b, string memory errorMessage) internal pure returns (uint256) {\r\n        require(b <= a, errorMessage);\r\n        return a - b;\r\n    }\r\n\r\n    /**\r\n     * @dev Returns the integer division of two unsigned integers, reverting with custom message on\r\n     * division by zero. The result is rounded towards zero.\r\n     *\r\n     * CAUTION: This function is deprecated because it requires allocating memory for the error\r\n     * message unnecessarily. For custom revert reasons use {tryDiv}.\r\n     *\r\n     * Counterpart to Solidity's `/` operator. Note: this function uses a\r\n     * `revert` opcode (which leaves remaining gas untouched) while Solidity\r\n     * uses an invalid opcode to revert (consuming all remaining gas).\r\n     *\r\n     * Requirements:\r\n     *\r\n     * - The divisor cannot be zero.\r\n     */\r\n    function div(uint256 a, uint256 b, string memory errorMessage) internal pure returns (uint256) {\r\n        require(b > 0, errorMessage);\r\n        return a / b;\r\n    }\r\n\r\n    /**\r\n     * @dev Returns the remainder of dividing two unsigned integers. (unsigned integer modulo),\r\n     * reverting with custom message when dividing by zero.\r\n     *\r\n     * CAUTION: This function is deprecated because it requires allocating memory for the error\r\n     * message unnecessarily. For custom revert reasons use {tryMod}.\r\n     *\r\n     * Counterpart to Solidity's `%` operator. This function uses a `revert`\r\n     * opcode (which leaves remaining gas untouched) while Solidity uses an\r\n     * invalid opcode to revert (consuming all remaining gas).\r\n     *\r\n     * Requirements:\r\n     *\r\n     * - The divisor cannot be zero.\r\n     */\r\n    function mod(uint256 a, uint256 b, string memory errorMessage) internal pure returns (uint256) {\r\n        require(b > 0, errorMessage);\r\n        return a % b;\r\n    }\r\n}\r\n\r\n\r\n// Dependency file: @openzeppelin/contracts/utils/Address.sol\r\n\r\n\r\n// pragma solidity ^0.7.0;\r\n\r\n/**\r\n * @dev Collection of functions related to the address type\r\n */\r\nlibrary Address {\r\n    /**\r\n     * @dev Returns true if `account` is a contract.\r\n     *\r\n     * [IMPORTANT]\r\n     * ====\r\n     * It is unsafe to assume that an address for which this function returns\r\n     * false is an externally-owned account (EOA) and not a contract.\r\n     *\r\n     * Among others, `isContract` will return false for the following\r\n     * types of addresses:\r\n     *\r\n     *  - an externally-owned account\r\n     *  - a contract in construction\r\n     *  - an address where a contract will be created\r\n     *  - an address where a contract lived, but was destroyed\r\n     * ====\r\n     */\r\n    function isContract(address account) internal view returns (bool) {\r\n        // This method relies on extcodesize, which returns 0 for contracts in\r\n        // construction, since the code is only stored at the end of the\r\n        // constructor execution.\r\n\r\n        uint256 size;\r\n        // solhint-disable-next-line no-inline-assembly\r\n        assembly { size := extcodesize(account) }\r\n        return size > 0;\r\n    }\r\n\r\n    /**\r\n     * @dev Replacement for Solidity's `transfer`: sends `amount` wei to\r\n     * `recipient`, forwarding all available gas and reverting on errors.\r\n     *\r\n     * https://eips.ethereum.org/EIPS/eip-1884[EIP1884] increases the gas cost\r\n     * of certain opcodes, possibly making contracts go over the 2300 gas limit\r\n     * imposed by `transfer`, making them unable to receive funds via\r\n     * `transfer`. {sendValue} removes this limitation.\r\n     *\r\n     * https://diligence.consensys.net/posts/2019/09/stop-using-soliditys-transfer-now/[Learn more].\r\n     *\r\n     * IMPORTANT: because control is transferred to `recipient`, care must be\r\n     * taken to not create reentrancy vulnerabilities. Consider using\r\n     * {ReentrancyGuard} or the\r\n     * https://solidity.readthedocs.io/en/v0.5.11/security-considerations.html#use-the-checks-effects-interactions-pattern[checks-effects-interactions pattern].\r\n     */\r\n    function sendValue(address payable recipient, uint256 amount) internal {\r\n        require(address(this).balance >= amount, \"Address: insufficient balance\");\r\n\r\n        // solhint-disable-next-line avoid-low-level-calls, avoid-call-value\r\n        (bool success, ) = recipient.call{ value: amount }(\"\");\r\n        require(success, \"Address: unable to send value, recipient may have reverted\");\r\n    }\r\n\r\n    /**\r\n     * @dev Performs a Solidity function call using a low level `call`. A\r\n     * plain`call` is an unsafe replacement for a function call: use this\r\n     * function instead.\r\n     *\r\n     * If `target` reverts with a revert reason, it is bubbled up by this\r\n     * function (like regular Solidity function calls).\r\n     *\r\n     * Returns the raw returned data. To convert to the expected return value,\r\n     * use https://solidity.readthedocs.io/en/latest/units-and-global-variables.html?highlight=abi.decode#abi-encoding-and-decoding-functions[`abi.decode`].\r\n     *\r\n     * Requirements:\r\n     *\r\n     * - `target` must be a contract.\r\n     * - calling `target` with `data` must not revert.\r\n     *\r\n     * _Available since v3.1._\r\n     */\r\n    function functionCall(address target, bytes memory data) internal returns (bytes memory) {\r\n      return functionCall(target, data, \"Address: low-level call failed\");\r\n    }\r\n\r\n    /**\r\n     * @dev Same as {xref-Address-functionCall-address-bytes-}[`functionCall`], but with\r\n     * `errorMessage` as a fallback revert reason when `target` reverts.\r\n     *\r\n     * _Available since v3.1._\r\n     */\r\n    function functionCall(address target, bytes memory data, string memory errorMessage) internal returns (bytes memory) {\r\n        return functionCallWithValue(target, data, 0, errorMessage);\r\n    }\r\n\r\n    /**\r\n     * @dev Same as {xref-Address-functionCall-address-bytes-}[`functionCall`],\r\n     * but also transferring `value` wei to `target`.\r\n     *\r\n     * Requirements:\r\n     *\r\n     * - the calling contract must have an ETH balance of at least `value`.\r\n     * - the called Solidity function must be `payable`.\r\n     *\r\n     * _Available since v3.1._\r\n     */\r\n    function functionCallWithValue(address target, bytes memory data, uint256 value) internal returns (bytes memory) {\r\n        return functionCallWithValue(target, data, value, \"Address: low-level call with value failed\");\r\n    }\r\n\r\n    /**\r\n     * @dev Same as {xref-Address-functionCallWithValue-address-bytes-uint256-}[`functionCallWithValue`], but\r\n     * with `errorMessage` as a fallback revert reason when `target` reverts.\r\n     *\r\n     * _Available since v3.1._\r\n     */\r\n    function functionCallWithValue(address target, bytes memory data, uint256 value, string memory errorMessage) internal returns (bytes memory) {\r\n        require(address(this).balance >= value, \"Address: insufficient balance for call\");\r\n        require(isContract(target), \"Address: call to non-contract\");\r\n\r\n        // solhint-disable-next-line avoid-low-level-calls\r\n        (bool success, bytes memory returndata) = target.call{ value: value }(data);\r\n        return _verifyCallResult(success, returndata, errorMessage);\r\n    }\r\n\r\n    /**\r\n     * @dev Same as {xref-Address-functionCall-address-bytes-}[`functionCall`],\r\n     * but performing a static call.\r\n     *\r\n     * _Available since v3.3._\r\n     */\r\n    function functionStaticCall(address target, bytes memory data) internal view returns (bytes memory) {\r\n        return functionStaticCall(target, data, \"Address: low-level static call failed\");\r\n    }\r\n\r\n    /**\r\n     * @dev Same as {xref-Address-functionCall-address-bytes-string-}[`functionCall`],\r\n     * but performing a static call.\r\n     *\r\n     * _Available since v3.3._\r\n     */\r\n    function functionStaticCall(address target, bytes memory data, string memory errorMessage) internal view returns (bytes memory) {\r\n        require(isContract(target), \"Address: static call to non-contract\");\r\n\r\n        // solhint-disable-next-line avoid-low-level-calls\r\n        (bool success, bytes memory returndata) = target.staticcall(data);\r\n        return _verifyCallResult(success, returndata, errorMessage);\r\n    }\r\n\r\n    /**\r\n     * @dev Same as {xref-Address-functionCall-address-bytes-}[`functionCall`],\r\n     * but performing a delegate call.\r\n     *\r\n     * _Available since v3.4._\r\n     */\r\n    function functionDelegateCall(address target, bytes memory data) internal returns (bytes memory) {\r\n        return functionDelegateCall(target, data, \"Address: low-level delegate call failed\");\r\n    }\r\n\r\n    /**\r\n     * @dev Same as {xref-Address-functionCall-address-bytes-string-}[`functionCall`],\r\n     * but performing a delegate call.\r\n     *\r\n     * _Available since v3.4._\r\n     */\r\n    function functionDelegateCall(address target, bytes memory data, string memory errorMessage) internal returns (bytes memory) {\r\n        require(isContract(target), \"Address: delegate call to non-contract\");\r\n\r\n        // solhint-disable-next-line avoid-low-level-calls\r\n        (bool success, bytes memory returndata) = target.delegatecall(data);\r\n        return _verifyCallResult(success, returndata, errorMessage);\r\n    }\r\n\r\n    function _verifyCallResult(bool success, bytes memory returndata, string memory errorMessage) private pure returns(bytes memory) {\r\n        if (success) {\r\n            return returndata;\r\n        } else {\r\n            // Look for revert reason and bubble it up if present\r\n            if (returndata.length > 0) {\r\n                // The easiest way to bubble the revert reason is using memory via assembly\r\n\r\n                // solhint-disable-next-line no-inline-assembly\r\n                assembly {\r\n                    let returndata_size := mload(returndata)\r\n                    revert(add(32, returndata), returndata_size)\r\n                }\r\n            } else {\r\n                revert(errorMessage);\r\n            }\r\n        }\r\n    }\r\n}\r\n\r\n\r\n// Dependency file: @openzeppelin/contracts/token/ERC20/SafeERC20.sol\r\n\r\n\r\n// pragma solidity ^0.7.0;\r\n\r\n// import \"@openzeppelin/contracts/token/ERC20/IERC20.sol\";\r\n// import \"@openzeppelin/contracts/math/SafeMath.sol\";\r\n// import \"@openzeppelin/contracts/utils/Address.sol\";\r\n\r\n/**\r\n * @title SafeERC20\r\n * @dev Wrappers around ERC20 operations that throw on failure (when the token\r\n * contract returns false). Tokens that return no value (and instead revert or\r\n * throw on failure) are also supported, non-reverting calls are assumed to be\r\n * successful.\r\n * To use this library you can add a `using SafeERC20 for IERC20;` statement to your contract,\r\n * which allows you to call the safe operations as `token.safeTransfer(...)`, etc.\r\n */\r\nlibrary SafeERC20 {\r\n    using SafeMath for uint256;\r\n    using Address for address;\r\n\r\n    function safeTransfer(IERC20 token, address to, uint256 value) internal {\r\n        _callOptionalReturn(token, abi.encodeWithSelector(token.transfer.selector, to, value));\r\n    }\r\n\r\n    function safeTransferFrom(IERC20 token, address from, address to, uint256 value) internal {\r\n        _callOptionalReturn(token, abi.encodeWithSelector(token.transferFrom.selector, from, to, value));\r\n    }\r\n\r\n    /**\r\n     * @dev Deprecated. This function has issues similar to the ones found in\r\n     * {IERC20-approve}, and its usage is discouraged.\r\n     *\r\n     * Whenever possible, use {safeIncreaseAllowance} and\r\n     * {safeDecreaseAllowance} instead.\r\n     */\r\n    function safeApprove(IERC20 token, address spender, uint256 value) internal {\r\n        // safeApprove should only be called when setting an initial allowance,\r\n        // or when resetting it to zero. To increase and decrease it, use\r\n        // 'safeIncreaseAllowance' and 'safeDecreaseAllowance'\r\n        // solhint-disable-next-line max-line-length\r\n        require((value == 0) || (token.allowance(address(this), spender) == 0),\r\n            \"SafeERC20: approve from non-zero to non-zero allowance\"\r\n        );\r\n        _callOptionalReturn(token, abi.encodeWithSelector(token.approve.selector, spender, value));\r\n    }\r\n\r\n    function safeIncreaseAllowance(IERC20 token, address spender, uint256 value) internal {\r\n        uint256 newAllowance = token.allowance(address(this), spender).add(value);\r\n        _callOptionalReturn(token, abi.encodeWithSelector(token.approve.selector, spender, newAllowance));\r\n    }\r\n\r\n    function safeDecreaseAllowance(IERC20 token, address spender, uint256 value) internal {\r\n        uint256 newAllowance = token.allowance(address(this), spender).sub(value, \"SafeERC20: decreased allowance below zero\");\r\n        _callOptionalReturn(token, abi.encodeWithSelector(token.approve.selector, spender, newAllowance));\r\n    }\r\n\r\n    /**\r\n     * @dev Imitates a Solidity high-level call (i.e. a regular function call to a contract), relaxing the requirement\r\n     * on the return value: the return value is optional (but if data is returned, it must not be false).\r\n     * @param token The token targeted by the call.\r\n     * @param data The call data (encoded using abi.encode or one of its variants).\r\n     */\r\n    function _callOptionalReturn(IERC20 token, bytes memory data) private {\r\n        // We need to perform a low level call here, to bypass Solidity's return data size checking mechanism, since\r\n        // we're implementing it ourselves. We use {Address.functionCall} to perform this call, which verifies that\r\n        // the target address contains contract code and also asserts for success in the low-level call.\r\n\r\n        bytes memory returndata = address(token).functionCall(data, \"SafeERC20: low-level call failed\");\r\n        if (returndata.length > 0) { // Return data is optional\r\n            // solhint-disable-next-line max-line-length\r\n            require(abi.decode(returndata, (bool)), \"SafeERC20: ERC20 operation did not succeed\");\r\n        }\r\n    }\r\n}\r\n\r\n\r\n// Dependency file: contracts/interfaces/IUniswapV2Router02.sol\r\n\r\n// pragma solidity >=0.6.2;\r\n\r\ninterface IUniswapV2Router01 {\r\n    function factory() external pure returns (address);\r\n\r\n    function WETH() external pure returns (address);\r\n\r\n    function addLiquidity(\r\n        address tokenA,\r\n        address tokenB,\r\n        uint256 amountADesired,\r\n        uint256 amountBDesired,\r\n        uint256 amountAMin,\r\n        uint256 amountBMin,\r\n        address to,\r\n        uint256 deadline\r\n    )\r\n        external\r\n        returns (\r\n            uint256 amountA,\r\n            uint256 amountB,\r\n            uint256 liquidity\r\n        );\r\n\r\n    function addLiquidityETH(\r\n        address token,\r\n        uint256 amountTokenDesired,\r\n        uint256 amountTokenMin,\r\n        uint256 amountETHMin,\r\n        address to,\r\n        uint256 deadline\r\n    )\r\n        external\r\n        payable\r\n        returns (\r\n            uint256 amountToken,\r\n            uint256 amountETH,\r\n            uint256 liquidity\r\n        );\r\n\r\n    function removeLiquidity(\r\n        address tokenA,\r\n        address tokenB,\r\n        uint256 liquidity,\r\n        uint256 amountAMin,\r\n        uint256 amountBMin,\r\n        address to,\r\n        uint256 deadline\r\n    ) external returns (uint256 amountA, uint256 amountB);\r\n\r\n    function removeLiquidityETH(\r\n        address token,\r\n        uint256 liquidity,\r\n        uint256 amountTokenMin,\r\n        uint256 amountETHMin,\r\n        address to,\r\n        uint256 deadline\r\n    ) external returns (uint256 amountToken, uint256 amountETH);\r\n\r\n    function removeLiquidityWithPermit(\r\n        address tokenA,\r\n        address tokenB,\r\n        uint256 liquidity,\r\n        uint256 amountAMin,\r\n        uint256 amountBMin,\r\n        address to,\r\n        uint256 deadline,\r\n        bool approveMax,\r\n        uint8 v,\r\n        bytes32 r,\r\n        bytes32 s\r\n    ) external returns (uint256 amountA, uint256 amountB);\r\n\r\n    function removeLiquidityETHWithPermit(\r\n        address token,\r\n        uint256 liquidity,\r\n        uint256 amountTokenMin,\r\n        uint256 amountETHMin,\r\n        address to,\r\n        uint256 deadline,\r\n        bool approveMax,\r\n        uint8 v,\r\n        bytes32 r,\r\n        bytes32 s\r\n    ) external returns (uint256 amountToken, uint256 amountETH);\r\n\r\n    function swapExactTokensForTokens(\r\n        uint256 amountIn,\r\n        uint256 amountOutMin,\r\n        address[] calldata path,\r\n        address to,\r\n        uint256 deadline\r\n    ) external returns (uint256[] memory amounts);\r\n\r\n    function swapTokensForExactTokens(\r\n        uint256 amountOut,\r\n        uint256 amountInMax,\r\n        address[] calldata path,\r\n        address to,\r\n        uint256 deadline\r\n    ) external returns (uint256[] memory amounts);\r\n\r\n    function swapExactETHForTokens(\r\n        uint256 amountOutMin,\r\n        address[] calldata path,\r\n        address to,\r\n        uint256 deadline\r\n    ) external payable returns (uint256[] memory amounts);\r\n\r\n    function swapTokensForExactETH(\r\n        uint256 amountOut,\r\n        uint256 amountInMax,\r\n        address[] calldata path,\r\n        address to,\r\n        uint256 deadline\r\n    ) external returns (uint256[] memory amounts);\r\n\r\n    function swapExactTokensForETH(\r\n        uint256 amountIn,\r\n        uint256 amountOutMin,\r\n        address[] calldata path,\r\n        address to,\r\n        uint256 deadline\r\n    ) external returns (uint256[] memory amounts);\r\n\r\n    function swapETHForExactTokens(\r\n        uint256 amountOut,\r\n        address[] calldata path,\r\n        address to,\r\n        uint256 deadline\r\n    ) external payable returns (uint256[] memory amounts);\r\n\r\n    function quote(\r\n        uint256 amountA,\r\n        uint256 reserveA,\r\n        uint256 reserveB\r\n    ) external pure returns (uint256 amountB);\r\n\r\n    function getAmountOut(\r\n        uint256 amountIn,\r\n        uint256 reserveIn,\r\n        uint256 reserveOut\r\n    ) external pure returns (uint256 amountOut);\r\n\r\n    function getAmountIn(\r\n        uint256 amountOut,\r\n        uint256 reserveIn,\r\n        uint256 reserveOut\r\n    ) external pure returns (uint256 amountIn);\r\n\r\n    function getAmountsOut(uint256 amountIn, address[] calldata path)\r\n        external\r\n        view\r\n        returns (uint256[] memory amounts);\r\n\r\n    function getAmountsIn(uint256 amountOut, address[] calldata path)\r\n        external\r\n        view\r\n        returns (uint256[] memory amounts);\r\n}\r\n\r\ninterface IUniswapV2Router02 is IUniswapV2Router01 {\r\n    function removeLiquidityETHSupportingFeeOnTransferTokens(\r\n        address token,\r\n        uint256 liquidity,\r\n        uint256 amountTokenMin,\r\n        uint256 amountETHMin,\r\n        address to,\r\n        uint256 deadline\r\n    ) external returns (uint256 amountETH);\r\n\r\n    function removeLiquidityETHWithPermitSupportingFeeOnTransferTokens(\r\n        address token,\r\n        uint256 liquidity,\r\n        uint256 amountTokenMin,\r\n        uint256 amountETHMin,\r\n        address to,\r\n        uint256 deadline,\r\n        bool approveMax,\r\n        uint8 v,\r\n        bytes32 r,\r\n        bytes32 s\r\n    ) external returns (uint256 amountETH);\r\n\r\n    function swapExactTokensForTokensSupportingFeeOnTransferTokens(\r\n        uint256 amountIn,\r\n        uint256 amountOutMin,\r\n        address[] calldata path,\r\n        address to,\r\n        uint256 deadline\r\n    ) external;\r\n\r\n    function swapExactETHForTokensSupportingFeeOnTransferTokens(\r\n        uint256 amountOutMin,\r\n        address[] calldata path,\r\n        address to,\r\n        uint256 deadline\r\n    ) external payable;\r\n\r\n    function swapExactTokensForETHSupportingFeeOnTransferTokens(\r\n        uint256 amountIn,\r\n        uint256 amountOutMin,\r\n        address[] calldata path,\r\n        address to,\r\n        uint256 deadline\r\n    ) external;\r\n}\r\n\r\n\r\n// Dependency file: contracts/interfaces/IUniswapV2Factory.sol\r\n\r\n// pragma solidity >=0.5.0;\r\n\r\ninterface IUniswapV2Factory {\r\n    event PairCreated(\r\n        address indexed token0,\r\n        address indexed token1,\r\n        address pair,\r\n        uint256\r\n    );\r\n\r\n    function feeTo() external view returns (address);\r\n\r\n    function feeToSetter() external view returns (address);\r\n\r\n    function getPair(address tokenA, address tokenB)\r\n        external\r\n        view\r\n        returns (address pair);\r\n\r\n    function allPairs(uint256) external view returns (address pair);\r\n\r\n    function allPairsLength() external view returns (uint256);\r\n\r\n    function createPair(address tokenA, address tokenB)\r\n        external\r\n        returns (address pair);\r\n\r\n    function setFeeTo(address) external;\r\n\r\n    function setFeeToSetter(address) external;\r\n}\r\n\r\n\r\n// Dependency file: contracts/interfaces/IPoolFactory.sol\r\n\r\n// pragma solidity >=0.5.0;\r\n\r\ninterface IPoolFactory {\r\n  function increaseTotalValueLocked(uint256 value) external;\r\n  function decreaseTotalValueLocked(uint256 value) external;\r\n  function removePoolForToken(address token, address pool) external;\r\n  function recordContribution(address user, address pool) external;\r\n}\r\n\r\n// Root file: contracts/factories/pool/Pool.sol\r\n\r\npragma solidity ^0.7.6;\r\n\r\n// import \"@openzeppelin/contracts-upgradeable/access/OwnableUpgradeable.sol\";\r\n// import \"@openzeppelin/contracts/token/ERC20/IERC20.sol\";\r\n// import \"@openzeppelin/contracts/token/ERC20/SafeERC20.sol\";\r\n// import \"@openzeppelin/contracts/math/SafeMath.sol\";\r\n// import \"@openzeppelin/contracts/utils/Address.sol\";\r\n// import \"contracts/interfaces/IUniswapV2Router02.sol\";\r\n// import \"contracts/interfaces/IUniswapV2Factory.sol\";\r\n// import \"contracts/interfaces/IPoolFactory.sol\";\r\n\r\n\r\ncontract Pool is OwnableUpgradeable {\r\n    using SafeMath for uint256;\r\n    using SafeERC20 for IERC20;\r\n    using Address for address payable;\r\n\r\n    uint constant MINIMUM_LOCK_DAYS = 5 minutes;\r\n\r\n    enum PoolState {\r\n        inUse,\r\n        completed,\r\n        cancelled\r\n    }\r\n\r\n    address public factory;\r\n    address public router;\r\n    address public governance;\r\n\r\n    address public token;\r\n    uint256 public rate;\r\n    uint256 public minContribution;\r\n    uint256 public maxContribution;\r\n    uint256 public softCap;\r\n    uint256 public hardCap;\r\n\r\n    uint256 public startTime;\r\n    uint256 public endTime;\r\n\r\n    uint256 private tokenFeePercent;\r\n    uint256 private ethFeePercent;\r\n\r\n    uint256 public liquidityListingRate;\r\n    uint256 public liquidityUnlockTime;\r\n    uint256 public liquidityLockDays;\r\n    uint256 public liquidityPercent;\r\n    uint256 public refundType;\r\n\r\n    string public poolDetails;\r\n\r\n    PoolState public poolState;\r\n\r\n    uint256 public totalRaised;\r\n    uint256 public totalVolumePurchased;\r\n    uint256 public totalClaimed;\r\n    uint256 public totalRefunded;\r\n\r\n    uint256 private tvl;\r\n\r\n    bool public completedKyc;\r\n\r\n    mapping(address => uint256) public contributionOf;\r\n    mapping(address => uint256) public purchasedOf;\r\n    mapping(address => uint256) public claimedOf;\r\n    mapping(address => uint256) public refundedOf;\r\n\r\n    event Contributed(\r\n        address indexed user,\r\n        uint256 amount,\r\n        uint256 volume,\r\n        uint256 total\r\n    );\r\n\r\n    event WithdrawnContribution(address indexed user, uint256 amount);\r\n\r\n    event Claimed(address indexed user, uint256 volume, uint256 total);\r\n\r\n    event Finalized(uint256 liquidity, uint256 finishAt);\r\n\r\n    modifier inProgress() {\r\n        require(poolState == PoolState.inUse, \"Pool is either completed or cancelled\");\r\n        require(block.timestamp < endTime, \"Pool ended\");\r\n        require(totalRaised < hardCap, \"Hardcap reached\");\r\n        _;\r\n    }\r\n\r\n    modifier onlyOperator() {\r\n        require(msg.sender == owner() || msg.sender == governance, \"Only operator\");\r\n        _;\r\n    }\r\n\r\n    modifier onlyGovernance() {\r\n        require(msg.sender == governance, \"Only governance\");\r\n        _;\r\n    }\r\n\r\n    receive() external payable {\r\n        if (msg.value > 0) contribute();\r\n    }\r\n\r\n    function initialize(\r\n        address[4] memory _addrs, // [0] = owner, [1] = token, [2] = router, [3] = governance\r\n        uint256[2] memory _rateSettings, // [0] = rate, [1] = uniswap rate\r\n        uint256[2] memory _contributionSettings, // [0] = min, [1] = max\r\n        uint256[2] memory _capSettings, // [0] = soft cap, [1] = hard cap\r\n        uint256[3] memory _timeSettings, // [0] = start, [1] = end, [2] = unlock seconds\r\n        uint256[2] memory _feeSettings, // [0] = token fee percent, [1] = eth fee percent\r\n        uint256 _liquidityPercent,\r\n        uint256 _refundType,\r\n        string memory _poolDetails\r\n    ) external initializer {\r\n        require(factory == address(0), \"Pool: Forbidden\");\r\n        require(_addrs[0] != address(0), \"Invalid owner address\");\r\n        require(_contributionSettings[0] <= _contributionSettings[1], \"Min contribution amount must be less than or equal to max\");\r\n        require(_capSettings[0].mul(2) >= _capSettings[1] && _capSettings[0] <= _capSettings[1], \"Softcap must be >= 50% of hardcap\");\r\n        require(_timeSettings[0] > block.timestamp, \"Start time should be in the future\");\r\n        require(_timeSettings[0] < _timeSettings[1], \"End time must be after start time\");\r\n        require(_timeSettings[2] >= MINIMUM_LOCK_DAYS, \"Liquidity unlock time must be at least 30 days after pool is finalized\");\r\n        require(\r\n            _feeSettings[0] >= 0 &&\r\n            _feeSettings[0] <= 100 &&\r\n            _feeSettings[1] >= 0 &&\r\n            _feeSettings[1] <= 100,\r\n            \"Invalid fee settings. Must be percentage (0 -> 100)\"\r\n        );\r\n        require (_rateSettings[0] >= _rateSettings[1], \"Liquidity listing rate must be less than or equal to pool listing rate\");\r\n        require(_liquidityPercent >= 51 && _liquidityPercent <= 100, \"Invalid liquidity percentage\");\r\n        require(_refundType == 0 || _refundType == 1, \"Refund type must be 0 (refund) or 1 (burn)\");\r\n        OwnableUpgradeable.__Ownable_init();\r\n        transferOwnership(_addrs[0]);\r\n        factory = msg.sender;\r\n        token = _addrs[1];\r\n        router = _addrs[2];\r\n        governance = _addrs[3];\r\n        rate = _rateSettings[0];\r\n        liquidityListingRate = _rateSettings[1];\r\n        minContribution = _contributionSettings[0];\r\n        maxContribution = _contributionSettings[1];\r\n        softCap = _capSettings[0];\r\n        hardCap = _capSettings[1];\r\n        startTime = _timeSettings[0];\r\n        endTime = _timeSettings[1];\r\n        liquidityLockDays = _timeSettings[2];\r\n        tokenFeePercent = _feeSettings[0];\r\n        ethFeePercent = _feeSettings[1];\r\n        liquidityPercent = _liquidityPercent;\r\n        refundType = _refundType;\r\n        poolDetails = _poolDetails;\r\n        poolState = PoolState.inUse;\r\n    }\r\n\r\n    function contribute() public payable inProgress {\r\n        require(msg.value > 0, \"Cant contribute 0\");\r\n        uint256 userTotalContribution = contributionOf[msg.sender].add(msg.value);\r\n        // Allow to contribute with an amount less than min contribution\r\n        // if the remaining contribution amount is less than min\r\n        if (hardCap.sub(totalRaised) >= minContribution) {\r\n            require(userTotalContribution >= minContribution, \"Min contribution not reached\");\r\n        }\r\n        require(userTotalContribution <= maxContribution, \"Contribute more than allowed\");\r\n        require(totalRaised.add(msg.value) <= hardCap, \"Buying amount exceeds hard cap\");\r\n        if (contributionOf[msg.sender] == 0) {\r\n            IPoolFactory(factory).recordContribution(msg.sender, address(this));\r\n        }\r\n        contributionOf[msg.sender] = userTotalContribution;\r\n        totalRaised = totalRaised.add(msg.value);\r\n        uint256 volume = msg.value.mul(rate).div(1e18);\r\n        require(volume > 0, \"Contribution too small to produce any volume\");\r\n        purchasedOf[msg.sender] = purchasedOf[msg.sender].add(volume);\r\n        totalVolumePurchased = totalVolumePurchased.add(volume);\r\n        emit Contributed(msg.sender, msg.value, volume, totalVolumePurchased);\r\n    }\r\n\r\n    function claim() public {\r\n        require(poolState == PoolState.completed, \"Owner has not closed the pool yet\");\r\n        require(claimedOf[msg.sender] == 0, \"Already claimed\");\r\n        uint256 volume = purchasedOf[msg.sender];\r\n        claimedOf[msg.sender] = volume;\r\n        totalClaimed = totalClaimed.add(volume);\r\n        IERC20(token).safeTransfer(msg.sender, volume);\r\n        emit Claimed(msg.sender, volume, totalClaimed);\r\n    }\r\n\r\n    function withdrawContribution() external {\r\n        if (poolState == PoolState.inUse) {\r\n            require(block.timestamp >= endTime, \"Pool is still in progress\");\r\n            require(totalRaised < softCap, \"Soft cap reached\");\r\n        } else {\r\n            require(poolState == PoolState.cancelled, \"Cannot withdraw contribution because pool is completed\");\r\n        }\r\n        require(refundedOf[msg.sender] == 0, \"Already withdrawn contribution\");\r\n        require(claimedOf[msg.sender] == 0, \"Already claimed\");\r\n\r\n        uint256 refundAmount = contributionOf[msg.sender];\r\n        refundedOf[msg.sender] = refundAmount;\r\n        totalRefunded = totalRefunded.add(refundAmount);\r\n        contributionOf[msg.sender] = 0;\r\n\r\n        payable(msg.sender).sendValue(refundAmount);\r\n        emit WithdrawnContribution(msg.sender, refundAmount);\r\n    }\r\n\r\n    function finalize() external onlyOperator {\r\n        require(poolState == PoolState.inUse, \"Pool was finialized or cancelled\");\r\n        require(\r\n            totalRaised == hardCap || hardCap.sub(totalRaised) < minContribution ||\r\n                (totalRaised >= softCap && block.timestamp >= endTime),\r\n            \"It is not time to finish\"\r\n        );\r\n\r\n        poolState = PoolState.completed;\r\n\r\n        liquidityUnlockTime = block.timestamp + liquidityLockDays;\r\n\r\n        uint256 bnbFee = totalRaised.mul(ethFeePercent).div(100);\r\n        uint256 tokenFee = totalVolumePurchased.mul(tokenFeePercent).div(100);\r\n\r\n        uint256 liquidityBnb = totalRaised.sub(bnbFee).mul(liquidityPercent).div(100);\r\n        uint256 liquidityToken = liquidityBnb.mul(liquidityListingRate).div(1e18);\r\n       \r\n        uint256 remainingBnb = address(this).balance.sub(liquidityBnb).sub(bnbFee);\r\n        uint256 remainingToken = 0;\r\n\r\n        uint256 totalTokenSpent = liquidityToken.add(tokenFee).add(totalVolumePurchased);\r\n        uint256 balance = IERC20(token).balanceOf(address(this));\r\n        if (balance > totalTokenSpent) {\r\n            remainingToken = balance.sub(totalTokenSpent);\r\n        }\r\n\r\n        // Pay platform fees\r\n        payable(governance).sendValue(bnbFee);\r\n        IERC20(token).safeTransfer(governance, tokenFee);\r\n\r\n        // Refund remaining\r\n        if (remainingBnb > 0) {\r\n            payable(owner()).sendValue(remainingBnb);\r\n        }\r\n       \r\n       if (remainingToken > 0) {\r\n            // 0: refund, 1: burn\r\n            if (refundType == 0) {\r\n                IERC20(token).safeTransfer(owner(), remainingToken);\r\n            } else {\r\n                IERC20(token).safeTransfer(address(0xdead), remainingToken);\r\n            }\r\n       }\r\n\r\n        tvl = liquidityBnb.mul(2);\r\n        IPoolFactory(factory).increaseTotalValueLocked(tvl);\r\n\r\n        IERC20(token).approve(router, liquidityToken);\r\n\r\n        (,, uint256 liquidity) = IUniswapV2Router02(router).addLiquidityETH{value: liquidityBnb}(\r\n            token,\r\n            liquidityToken,\r\n            liquidityToken,\r\n            liquidityBnb,\r\n            address(this),\r\n            block.timestamp\r\n        );\r\n        emit Finalized(liquidity, block.timestamp);\r\n    }\r\n\r\n    function cancel() external onlyOperator {\r\n        require (poolState == PoolState.inUse, \"Pool was either finished or cancelled\");\r\n        poolState = PoolState.cancelled;\r\n        IPoolFactory(factory).removePoolForToken(token, address(this));\r\n        IERC20(token).safeTransfer(owner(), IERC20(token).balanceOf(address(this)));\r\n    }\r\n\r\n    function withdrawLeftovers() external onlyOperator {\r\n        require(block.timestamp >= endTime, \"It is not time to withdraw leftovers\");\r\n        require(totalRaised < softCap, \"Soft cap reached, call finalize() instead\");\r\n        IERC20(token).safeTransfer(owner(), IERC20(token).balanceOf(address(this)));\r\n    }\r\n\r\n    function withdrawLiquidity() external onlyOperator {\r\n        require(poolState == PoolState.completed, \"Pool has not been finalized\");\r\n        require(block.timestamp >= liquidityUnlockTime, \"It is not time to unlock liquidity\");\r\n        IPoolFactory(factory).decreaseTotalValueLocked(tvl);\r\n        tvl = 0;\r\n        address swapFactory = IUniswapV2Router02(router).factory();\r\n        address pair = IUniswapV2Factory(swapFactory).getPair(\r\n            IUniswapV2Router02(router).WETH(),\r\n            token\r\n        );\r\n        IERC20(pair).safeTransfer(\r\n            owner(),\r\n            IERC20(pair).balanceOf(address(this))\r\n        );\r\n    }\r\n\r\n    function emergencyWithdraw(address token_, address to_, uint256 amount_) external onlyGovernance {\r\n        address swapFactory = IUniswapV2Router02(router).factory();\r\n        address pair = IUniswapV2Factory(swapFactory).getPair(\r\n            IUniswapV2Router02(router).WETH(),\r\n            token\r\n        );\r\n        require(token_ != pair, \"Cannot withdraw liquidity. Use withdrawLiquidity() instead\");\r\n        IERC20(token_).safeTransfer(to_, amount_);\r\n    }\r\n\r\n    function emergencyWithdraw(address payable to_, uint256 amount_) external onlyGovernance {\r\n        to_.sendValue(amount_);\r\n    }\r\n\r\n    function updatePoolDetails(string memory details_) external onlyOperator {\r\n        poolDetails = details_;\r\n    }\r\n\r\n    function updateCompletedKyc(bool completed_) external onlyGovernance {\r\n        completedKyc = completed_;\r\n    }\r\n\r\n    function setGovernance(address governance_) external onlyGovernance {\r\n        governance = governance_;\r\n    }\r\n\r\n    function getContributionAmount(address user_) public view returns (uint256, uint256) {\r\n        uint256 contributed = contributionOf[user_];\r\n\r\n        // Bought all their allocation\r\n        if (contributed >= maxContribution) {\r\n            return (0, 0);\r\n        }\r\n\r\n        uint256 availableToBuy = remainingContribution();\r\n        uint256 remainingAllocation = maxContribution.sub(contributed);\r\n\r\n        // How much bnb is one token\r\n        if (availableToBuy > remainingAllocation) {\r\n            if (contributed > 0) {\r\n                return (0, remainingAllocation);\r\n            } else {\r\n                return (minContribution, remainingAllocation);\r\n            }\r\n        } else {\r\n             if (contributed > 0) {\r\n                return (0, availableToBuy);\r\n            } else {\r\n                if (availableToBuy < minContribution) {\r\n                    return (0, availableToBuy);\r\n                } else {\r\n                    return (minContribution, availableToBuy);\r\n                }\r\n            }\r\n        }\r\n    }\r\n\r\n    function liquidityBalance() public view returns (uint256) {\r\n        address swapFactory = IUniswapV2Router02(router).factory();\r\n        address pair = IUniswapV2Factory(swapFactory).getPair(\r\n            IUniswapV2Router02(router).WETH(),\r\n            token\r\n        );\r\n        return IERC20(pair).balanceOf(address(this));\r\n    }\r\n\r\n    function remainingContribution() public view returns (uint256) {\r\n        return hardCap.sub(totalRaised);\r\n    }\r\n\r\n    function convert(uint256 amountInWei) public view returns (uint256) {\r\n        return amountInWei.mul(rate).div(1e18);\r\n    }\r\n}",
  "sourcePath": "D:\\My_Working\\BlockChain\\@Danny\\PinkSale-pool\\contracts\\Pool.sol",
  "compiler": {
    "name": "solc",
    "version": "0.7.6+commit.7338295f.Emscripten.clang"
  },
  "schemaVersion": "3.4.3",
  "updatedAt": "2021-12-27T17:23:15.899Z",
  "devdoc": {
    "kind": "dev",
    "methods": {
      "owner()": {
        "details": "Returns the address of the current owner."
      },
      "renounceOwnership()": {
        "details": "Leaves the contract without owner. It will not be possible to call `onlyOwner` functions anymore. Can only be called by the current owner. NOTE: Renouncing ownership will leave the contract without an owner, thereby removing any functionality that is only available to the owner."
      },
      "transferOwnership(address)": {
        "details": "Transfers ownership of the contract to a new account (`newOwner`). Can only be called by the current owner."
      }
    },
    "version": 1
  },
  "userdoc": {
    "kind": "user",
    "methods": {},
    "version": 1
  }
}